{
  "contractName": "Authentifier",
  "abi": [
    {
      "constant": true,
      "inputs": [
        {
          "internalType": "string",
          "name": "",
          "type": "string"
        }
      ],
      "name": "customers",
      "outputs": [
        {
          "internalType": "string",
          "name": "name",
          "type": "string"
        },
        {
          "internalType": "string",
          "name": "phone",
          "type": "string"
        },
        {
          "internalType": "string",
          "name": "hashid",
          "type": "string"
        }
      ],
      "payable": false,
      "stateMutability": "view",
      "type": "function"
    },
    {
      "constant": true,
      "inputs": [
        {
          "internalType": "string",
          "name": "",
          "type": "string"
        }
      ],
      "name": "retailer",
      "outputs": [
        {
          "internalType": "string",
          "name": "name",
          "type": "string"
        },
        {
          "internalType": "string",
          "name": "location",
          "type": "string"
        },
        {
          "internalType": "string",
          "name": "hashid",
          "type": "string"
        }
      ],
      "payable": false,
      "stateMutability": "view",
      "type": "function"
    },
    {
      "constant": false,
      "inputs": [
        {
          "internalType": "string",
          "name": "_id",
          "type": "string"
        },
        {
          "internalType": "string",
          "name": "_name",
          "type": "string"
        },
        {
          "internalType": "string",
          "name": "_phone",
          "type": "string"
        }
      ],
      "name": "createCustomer",
      "outputs": [
        {
          "internalType": "uint256",
          "name": "",
          "type": "uint256"
        }
      ],
      "payable": true,
      "stateMutability": "payable",
      "type": "function"
    },
    {
      "constant": true,
      "inputs": [
        {
          "internalType": "string",
          "name": "_id",
          "type": "string"
        }
      ],
      "name": "getCustomeDetails",
      "outputs": [
        {
          "internalType": "string",
          "name": "",
          "type": "string"
        },
        {
          "internalType": "string",
          "name": "",
          "type": "string"
        },
        {
          "internalType": "string",
          "name": "",
          "type": "string"
        }
      ],
      "payable": false,
      "stateMutability": "view",
      "type": "function"
    },
    {
      "constant": false,
      "inputs": [
        {
          "internalType": "string",
          "name": "_id",
          "type": "string"
        },
        {
          "internalType": "string",
          "name": "_name",
          "type": "string"
        },
        {
          "internalType": "string",
          "name": "_location",
          "type": "string"
        }
      ],
      "name": "createReatiler",
      "outputs": [
        {
          "internalType": "bool",
          "name": "",
          "type": "bool"
        }
      ],
      "payable": true,
      "stateMutability": "payable",
      "type": "function"
    },
    {
      "constant": true,
      "inputs": [
        {
          "internalType": "string",
          "name": "_id",
          "type": "string"
        }
      ],
      "name": "getRetailerDetails",
      "outputs": [
        {
          "internalType": "string",
          "name": "",
          "type": "string"
        },
        {
          "internalType": "string",
          "name": "",
          "type": "string"
        },
        {
          "internalType": "string",
          "name": "",
          "type": "string"
        }
      ],
      "payable": false,
      "stateMutability": "view",
      "type": "function"
    },
    {
      "constant": false,
      "inputs": [
        {
          "internalType": "string",
          "name": "_code",
          "type": "string"
        },
        {
          "internalType": "string",
          "name": "_brand",
          "type": "string"
        },
        {
          "internalType": "string",
          "name": "_description",
          "type": "string"
        },
        {
          "internalType": "string",
          "name": "_manufacturehash",
          "type": "string"
        },
        {
          "internalType": "string",
          "name": "_manufactuerLocation",
          "type": "string"
        }
      ],
      "name": "createCode",
      "outputs": [
        {
          "internalType": "uint256",
          "name": "",
          "type": "uint256"
        }
      ],
      "payable": true,
      "stateMutability": "payable",
      "type": "function"
    },
    {
      "constant": true,
      "inputs": [
        {
          "internalType": "string",
          "name": "_code",
          "type": "string"
        }
      ],
      "name": "getProductDeailes",
      "outputs": [
        {
          "internalType": "uint256",
          "name": "",
          "type": "uint256"
        },
        {
          "internalType": "string",
          "name": "",
          "type": "string"
        },
        {
          "internalType": "string",
          "name": "",
          "type": "string"
        },
        {
          "internalType": "string",
          "name": "",
          "type": "string"
        },
        {
          "internalType": "string",
          "name": "",
          "type": "string"
        },
        {
          "internalType": "string",
          "name": "",
          "type": "string"
        }
      ],
      "payable": false,
      "stateMutability": "view",
      "type": "function"
    },
    {
      "constant": true,
      "inputs": [
        {
          "internalType": "string",
          "name": "_code",
          "type": "string"
        }
      ],
      "name": "getOwnedProductDetails",
      "outputs": [
        {
          "internalType": "string",
          "name": "",
          "type": "string"
        },
        {
          "internalType": "string",
          "name": "",
          "type": "string"
        }
      ],
      "payable": false,
      "stateMutability": "view",
      "type": "function"
    },
    {
      "constant": false,
      "inputs": [
        {
          "internalType": "string",
          "name": "_code",
          "type": "string"
        },
        {
          "internalType": "string",
          "name": "_retailerHash",
          "type": "string"
        }
      ],
      "name": "addRetailerToCode",
      "outputs": [
        {
          "internalType": "uint256",
          "name": "",
          "type": "uint256"
        }
      ],
      "payable": true,
      "stateMutability": "payable",
      "type": "function"
    },
    {
      "constant": false,
      "inputs": [
        {
          "internalType": "string",
          "name": "_code",
          "type": "string"
        },
        {
          "internalType": "string",
          "name": "_retailer",
          "type": "string"
        },
        {
          "internalType": "string",
          "name": "_customer",
          "type": "string"
        }
      ],
      "name": "setInitialOwner",
      "outputs": [
        {
          "internalType": "uint256",
          "name": "",
          "type": "uint256"
        }
      ],
      "payable": true,
      "stateMutability": "payable",
      "type": "function"
    },
    {
      "constant": false,
      "inputs": [
        {
          "internalType": "string",
          "name": "_code",
          "type": "string"
        },
        {
          "internalType": "string",
          "name": "_newCustomer",
          "type": "string"
        },
        {
          "internalType": "string",
          "name": "_oldCustomer",
          "type": "string"
        }
      ],
      "name": "changeOwner",
      "outputs": [
        {
          "internalType": "uint256",
          "name": "",
          "type": "uint256"
        }
      ],
      "payable": true,
      "stateMutability": "payable",
      "type": "function"
    },
    {
      "constant": true,
      "inputs": [
        {
          "internalType": "string",
          "name": "_customer",
          "type": "string"
        }
      ],
      "name": "getCodes",
      "outputs": [
        {
          "internalType": "string[]",
          "name": "",
          "type": "string[]"
        }
      ],
      "payable": false,
      "stateMutability": "view",
      "type": "function"
    },
    {
      "constant": true,
      "inputs": [
        {
          "internalType": "string",
          "name": "a",
          "type": "string"
        },
        {
          "internalType": "string",
          "name": "b",
          "type": "string"
        }
      ],
      "name": "compareStrings",
      "outputs": [
        {
          "internalType": "bool",
          "name": "",
          "type": "bool"
        }
      ],
      "payable": false,
      "stateMutability": "view",
      "type": "function"
    }
  ],
  "bytecode": "0x608060405234801561001057600080fd5b506129ea806100206000396000f3fe6080604052600436106100dd5760003560e01c8063b64b002c1161007f578063ceff2efc11610059578063ceff2efc1461031c578063ea788dd11461034c578063ff4e36a41461038b578063ff901040146103bb576100dd565b8063b64b002c1461025e578063b96574b71461029d578063bed34bba146102df576100dd565b80636205b08b116100bb5780636205b08b1461018057806393a02a0f146101b0578063a82c98d0146101ef578063b3e19d1a1461022e576100dd565b80632b7cc35a146100e2578063306418621461011257806355b059e814610150575b600080fd5b6100fc60048036036100f7919081019061234f565b6103f8565b6040516101099190612789565b60405180910390f35b34801561011e57600080fd5b506101396004803603610134919081019061220b565b610534565b6040516101479291906126ba565b60405180910390f35b61016a600480360361016591908101906122b8565b6106fa565b6040516101779190612789565b60405180910390f35b61019a600480360361019591908101906122b8565b6107c1565b6040516101a7919061269f565b60405180910390f35b3480156101bc57600080fd5b506101d760048036036101d2919081019061220b565b610861565b6040516101e6939291906126f1565b60405180910390f35b3480156101fb57600080fd5b50610216600480360361021191908101906121ca565b610aaa565b6040516102259392919061273d565b60405180910390f35b6102486004803603610243919081019061224c565b610cb2565b6040516102559190612789565b60405180910390f35b34801561026a57600080fd5b50610285600480360361028091908101906121ca565b610cf4565b6040516102949392919061273d565b60405180910390f35b3480156102a957600080fd5b506102c460048036036102bf919081019061220b565b610efc565b6040516102d6969594939291906127a4565b60405180910390f35b3480156102eb57600080fd5b506103066004803603610301919081019061224c565b6112ee565b604051610313919061269f565b60405180910390f35b610336600480360361033191908101906122b8565b611347565b6040516103439190612789565b60405180910390f35b34801561035857600080fd5b50610373600480360361036e919081019061220b565b611857565b604051610382939291906126f1565b60405180910390f35b6103a560048036036103a091908101906122b8565b611aa0565b6040516103b29190612789565b60405180910390f35b3480156103c757600080fd5b506103e260048036036103dd919081019061220b565b611db2565b6040516103ef919061267d565b60405180910390f35b6000610402611ebc565b868160000181905250858160400181905250848160600181905250838160800181905250828160a0018190525080600288604051610440919061264f565b9081526020016040518091039020600082015181600001908051906020019061046a929190611f01565b50602082015181600101556040820151816002019080519060200190610491929190611f01565b5060608201518160030190805190602001906104ae929190611f01565b5060808201518160040190805190602001906104cb929190611f01565b5060a08201518160050190805190602001906104e8929190611f01565b5060c0820151816006019080519060200190610505929190611f01565b5060e0820151816007019080519060200190610522929190611f81565b50905050600191505095945050505050565b6060806000600284604051610549919061264f565b90815260200160405180910390206006016040516105679190612666565b9081526020016040518091039020600001600060028560405161058a919061264f565b90815260200160405180910390206006016040516105a89190612666565b9081526020016040518091039020600101818054600181600116156101000203166002900480601f01602080910402602001604051908101604052809291908181526020018280546001816001161561010002031660029004801561064e5780601f106106235761010080835404028352916020019161064e565b820191906000526020600020905b81548152906001019060200180831161063157829003601f168201915b50505050509150808054600181600116156101000203166002900480601f0160208091040260200160405190810160405280929190818152602001828054600181600116156101000203166002900480156106ea5780601f106106bf576101008083540402835291602001916106ea565b820191906000526020600020905b8154815290600101906020018083116106cd57829003601f168201915b5050505050905091509150915091565b6000610704611fe1565b83816000018190525082816020018190525084816040018190525080600186604051610730919061264f565b9081526020016040518091039020600082015181600001908051906020019061075a929190611f01565b506020820151816001019080519060200190610777929190611f01565b506040820151816002019080519060200190610794929190611f01565b5060608201518160030190805190602001906107b1929190611f81565b5090505060019150509392505050565b60006040518060600160405280848152602001838152602001858152506000856040516107ee919061264f565b90815260200160405180910390206000820151816000019080519060200190610818929190611f01565b506020820151816001019080519060200190610835929190611f01565b506040820151816002019080519060200190610852929190611f01565b50905050600190509392505050565b6060806060600184604051610876919061264f565b9081526020016040518091039020600201600185604051610897919061264f565b90815260200160405180910390206000016001866040516108b8919061264f565b9081526020016040518091039020600101828054600181600116156101000203166002900480601f01602080910402602001604051908101604052809291908181526020018280546001816001161561010002031660029004801561095e5780601f106109335761010080835404028352916020019161095e565b820191906000526020600020905b81548152906001019060200180831161094157829003601f168201915b50505050509250818054600181600116156101000203166002900480601f0160208091040260200160405190810160405280929190818152602001828054600181600116156101000203166002900480156109fa5780601f106109cf576101008083540402835291602001916109fa565b820191906000526020600020905b8154815290600101906020018083116109dd57829003601f168201915b50505050509150808054600181600116156101000203166002900480601f016020809104026020016040519081016040528092919081815260200182805460018160011615610100020316600290048015610a965780601f10610a6b57610100808354040283529160200191610a96565b820191906000526020600020905b815481529060010190602001808311610a7957829003601f168201915b505050505090509250925092509193909250565b600181805160208101820180518482526020830160208501208183528095505050505050600091509050806000018054600181600116156101000203166002900480601f016020809104026020016040519081016040528092919081815260200182805460018160011615610100020316600290048015610b6c5780601f10610b4157610100808354040283529160200191610b6c565b820191906000526020600020905b815481529060010190602001808311610b4f57829003601f168201915b505050505090806001018054600181600116156101000203166002900480601f016020809104026020016040519081016040528092919081815260200182805460018160011615610100020316600290048015610c0a5780601f10610bdf57610100808354040283529160200191610c0a565b820191906000526020600020905b815481529060010190602001808311610bed57829003601f168201915b505050505090806002018054600181600116156101000203166002900480601f016020809104026020016040519081016040528092919081815260200182805460018160011615610100020316600290048015610ca85780601f10610c7d57610100808354040283529160200191610ca8565b820191906000526020600020905b815481529060010190602001808311610c8b57829003601f168201915b5050505050905083565b600081600284604051610cc5919061264f565b90815260200160405180910390206006019080519060200190610ce9929190612009565b506001905092915050565b600081805160208101820180518482526020830160208501208183528095505050505050600091509050806000018054600181600116156101000203166002900480601f016020809104026020016040519081016040528092919081815260200182805460018160011615610100020316600290048015610db65780601f10610d8b57610100808354040283529160200191610db6565b820191906000526020600020905b815481529060010190602001808311610d9957829003601f168201915b505050505090806001018054600181600116156101000203166002900480601f016020809104026020016040519081016040528092919081815260200182805460018160011615610100020316600290048015610e545780601f10610e2957610100808354040283529160200191610e54565b820191906000526020600020905b815481529060010190602001808311610e3757829003601f168201915b505050505090806002018054600181600116156101000203166002900480601f016020809104026020016040519081016040528092919081815260200182805460018160011615610100020316600290048015610ef25780601f10610ec757610100808354040283529160200191610ef2565b820191906000526020600020905b815481529060010190602001808311610ed557829003601f168201915b5050505050905083565b60006060806060806060600287604051610f16919061264f565b908152602001604051809103902060010154600288604051610f38919061264f565b9081526020016040518091039020600201600289604051610f59919061264f565b908152602001604051809103902060030160028a604051610f7a919061264f565b908152602001604051809103902060040160028b604051610f9b919061264f565b908152602001604051809103902060050160028c604051610fbc919061264f565b9081526020016040518091039020600601848054600181600116156101000203166002900480601f0160208091040260200160405190810160405280929190818152602001828054600181600116156101000203166002900480156110625780601f1061103757610100808354040283529160200191611062565b820191906000526020600020905b81548152906001019060200180831161104557829003601f168201915b50505050509450838054600181600116156101000203166002900480601f0160208091040260200160405190810160405280929190818152602001828054600181600116156101000203166002900480156110fe5780601f106110d3576101008083540402835291602001916110fe565b820191906000526020600020905b8154815290600101906020018083116110e157829003601f168201915b50505050509350828054600181600116156101000203166002900480601f01602080910402602001604051908101604052809291908181526020018280546001816001161561010002031660029004801561119a5780601f1061116f5761010080835404028352916020019161119a565b820191906000526020600020905b81548152906001019060200180831161117d57829003601f168201915b50505050509250818054600181600116156101000203166002900480601f0160208091040260200160405190810160405280929190818152602001828054600181600116156101000203166002900480156112365780601f1061120b57610100808354040283529160200191611236565b820191906000526020600020905b81548152906001019060200180831161121957829003601f168201915b50505050509150808054600181600116156101000203166002900480601f0160208091040260200160405190810160405280929190818152602001828054600181600116156101000203166002900480156112d25780601f106112a7576101008083540402835291602001916112d2565b820191906000526020600020905b8154815290600101906020018083116112b557829003601f168201915b5050505050905095509550955095509550955091939550919395565b600081604051602001611301919061264f565b6040516020818303038152906040528051906020012083604051602001611328919061264f565b6040516020818303038152906040528051906020012014905092915050565b6000806000809050611357611ebc565b600287604051611367919061264f565b908152602001604051809103902060405180610100016040529081600082018054600181600116156101000203166002900480601f01602080910402602001604051908101604052809291908181526020018280546001816001161561010002031660029004801561141a5780601f106113ef5761010080835404028352916020019161141a565b820191906000526020600020905b8154815290600101906020018083116113fd57829003601f168201915b5050505050815260200160018201548152602001600282018054600181600116156101000203166002900480601f0160208091040260200160405190810160405280929190818152602001828054600181600116156101000203166002900480156114c65780601f1061149b576101008083540402835291602001916114c6565b820191906000526020600020905b8154815290600101906020018083116114a957829003601f168201915b50505050508152602001600382018054600181600116156101000203166002900480601f0160208091040260200160405190810160405280929190818152602001828054600181600116156101000203166002900480156115685780601f1061153d57610100808354040283529160200191611568565b820191906000526020600020905b81548152906001019060200180831161154b57829003601f168201915b50505050508152602001600482018054600181600116156101000203166002900480601f01602080910402602001604051908101604052809291908181526020018280546001816001161561010002031660029004801561160a5780601f106115df5761010080835404028352916020019161160a565b820191906000526020600020905b8154815290600101906020018083116115ed57829003601f168201915b50505050508152602001600582018054600181600116156101000203166002900480601f0160208091040260200160405190810160405280929190818152602001828054600181600116156101000203166002900480156116ac5780601f10611681576101008083540402835291602001916116ac565b820191906000526020600020905b81548152906001019060200180831161168f57829003601f168201915b50505050508152602001600682018054600181600116156101000203166002900480601f01602080910402602001604051908101604052809291908181526020018280546001816001161561010002031660029004801561174e5780601f106117235761010080835404028352916020019161174e565b820191906000526020600020905b81548152906001019060200180831161173157829003601f168201915b5050505050815260200160078201805480602002602001604051908101604052809291908181526020016000905b82821015611838578382906000526020600020018054600181600116156101000203166002900480601f0160208091040260200160405190810160405280929190818152602001828054600181600116156101000203166002900480156118245780601f106117f957610100808354040283529160200191611824565b820191906000526020600020905b81548152906001019060200180831161180757829003601f168201915b50505050508152602001906001019061177c565b5050505081525050905060008160e00151519050505050509392505050565b606080606060008460405161186c919061264f565b908152602001604051809103902060020160008560405161188d919061264f565b90815260200160405180910390206000016000866040516118ae919061264f565b9081526020016040518091039020600101828054600181600116156101000203166002900480601f0160208091040260200160405190810160405280929190818152602001828054600181600116156101000203166002900480156119545780601f1061192957610100808354040283529160200191611954565b820191906000526020600020905b81548152906001019060200180831161193757829003601f168201915b50505050509250818054600181600116156101000203166002900480601f0160208091040260200160405190810160405280929190818152602001828054600181600116156101000203166002900480156119f05780601f106119c5576101008083540402835291602001916119f0565b820191906000526020600020905b8154815290600101906020018083116119d357829003601f168201915b50505050509150808054600181600116156101000203166002900480601f016020809104026020016040519081016040528092919081815260200182805460018160011615610100020316600290048015611a8c5780601f10611a6157610100808354040283529160200191611a8c565b820191906000526020600020905b815481529060010190602001808311611a6f57829003601f168201915b505050505090509250925092509193909250565b6000611b65600285604051611ab5919061264f565b90815260200160405180910390206006018054600181600116156101000203166002900480601f016020809104026020016040519081016040528092919081815260200182805460018160011615610100020316600290048015611b5a5780601f10611b2f57610100808354040283529160200191611b5a565b820191906000526020600020905b815481529060010190602001808311611b3d57829003601f168201915b5050505050846112ee565b15611da657611c2d600183604051611b7d919061264f565b90815260200160405180910390206002018054600181600116156101000203166002900480601f016020809104026020016040519081016040528092919081815260200182805460018160011615610100020316600290048015611c225780601f10611bf757610100808354040283529160200191611c22565b820191906000526020600020905b815481529060010190602001808311611c0557829003601f168201915b5050505050836112ee565b15611da557600284604051611c42919061264f565b9081526020016040518091039020600701829080600181540180825580915050906001820390600052602060002001600090919290919091509080519060200190611c8e929190612009565b50506001600285604051611ca2919061264f565b9081526020016040518091039020600101819055506000600183604051611cc9919061264f565b90815260200160405180910390206003018054905090506000811415611d4c57600183604051611cf9919061264f565b9081526020016040518091039020600301859080600181540180825580915050906001820390600052602060002001600090919290919091509080519060200190611d45929190612009565b5050611d9b565b84600184604051611d5d919061264f565b90815260200160405180910390206003016001830381548110611d7c57fe5b906000526020600020019080519060200190611d99929190612009565b505b6001915050611dab565b5b600090505b9392505050565b6060600182604051611dc4919061264f565b9081526020016040518091039020600301805480602002602001604051908101604052809291908181526020016000905b82821015611eb1578382906000526020600020018054600181600116156101000203166002900480601f016020809104026020016040519081016040528092919081815260200182805460018160011615610100020316600290048015611e9d5780601f10611e7257610100808354040283529160200191611e9d565b820191906000526020600020905b815481529060010190602001808311611e8057829003601f168201915b505050505081526020019060010190611df5565b505050509050919050565b60405180610100016040528060608152602001600081526020016060815260200160608152602001606081526020016060815260200160608152602001606081525090565b828054600181600116156101000203166002900490600052602060002090601f016020900481019282601f10611f4257805160ff1916838001178555611f70565b82800160010185558215611f70579182015b82811115611f6f578251825591602001919060010190611f54565b5b509050611f7d9190612089565b5090565b828054828255906000526020600020908101928215611fd0579160200282015b82811115611fcf578251829080519060200190611fbf929190611f01565b5091602001919060010190611fa1565b5b509050611fdd91906120ae565b5090565b6040518060800160405280606081526020016060815260200160608152602001606081525090565b828054600181600116156101000203166002900490600052602060002090601f016020900481019282601f1061204a57805160ff1916838001178555612078565b82800160010185558215612078579182015b8281111561207757825182559160200191906001019061205c565b5b5090506120859190612089565b5090565b6120ab91905b808211156120a757600081600090555060010161208f565b5090565b90565b6120d791905b808211156120d357600081816120ca91906120da565b506001016120b4565b5090565b90565b50805460018160011615610100020316600290046000825580601f10612100575061211f565b601f01602090049060005260206000209081019061211e9190612089565b5b50565b600082601f83011261213357600080fd5b813561214661214182612855565b612828565b9150808252602083016020830185838301111561216257600080fd5b61216d838284612954565b50505092915050565b600082601f83011261218757600080fd5b813561219a61219582612881565b612828565b915080825260208301602083018583830111156121b657600080fd5b6121c1838284612954565b50505092915050565b6000602082840312156121dc57600080fd5b600082013567ffffffffffffffff8111156121f657600080fd5b61220284828501612122565b91505092915050565b60006020828403121561221d57600080fd5b600082013567ffffffffffffffff81111561223757600080fd5b61224384828501612176565b91505092915050565b6000806040838503121561225f57600080fd5b600083013567ffffffffffffffff81111561227957600080fd5b61228585828601612176565b925050602083013567ffffffffffffffff8111156122a257600080fd5b6122ae85828601612176565b9150509250929050565b6000806000606084860312156122cd57600080fd5b600084013567ffffffffffffffff8111156122e757600080fd5b6122f386828701612176565b935050602084013567ffffffffffffffff81111561231057600080fd5b61231c86828701612176565b925050604084013567ffffffffffffffff81111561233957600080fd5b61234586828701612176565b9150509250925092565b600080600080600060a0868803121561236757600080fd5b600086013567ffffffffffffffff81111561238157600080fd5b61238d88828901612176565b955050602086013567ffffffffffffffff8111156123aa57600080fd5b6123b688828901612176565b945050604086013567ffffffffffffffff8111156123d357600080fd5b6123df88828901612176565b935050606086013567ffffffffffffffff8111156123fc57600080fd5b61240888828901612176565b925050608086013567ffffffffffffffff81111561242557600080fd5b61243188828901612176565b9150509295509295909350565b600061244a8383612540565b905092915050565b600061245d826128d2565b6124678185612900565b935083602082028501612479856128ad565b8060005b858110156124b55784840389528151612496858261243e565b94506124a1836128f3565b925060208a0199505060018101905061247d565b50829750879550505050505092915050565b6124d08161293e565b82525050565b60006124e1826128e8565b6124eb8185612922565b93506124fb818560208601612963565b61250481612996565b840191505092915050565b600061251a826128e8565b6125248185612933565b9350612534818560208601612963565b80840191505092915050565b600061254b826128dd565b6125558185612911565b9350612565818560208601612963565b61256e81612996565b840191505092915050565b6000612584826128dd565b61258e8185612922565b935061259e818560208601612963565b6125a781612996565b840191505092915050565b6000815460018116600081146125cf57600181146125f457612638565b607f60028304166125e08187612933565b955060ff1983168652808601935050612638565b600282046126028187612933565b955061260d856128bd565b60005b8281101561262f57815481890152600182019150602081019050612610565b82880195505050505b505092915050565b6126498161294a565b82525050565b600061265b828461250f565b915081905092915050565b600061267282846125b2565b915081905092915050565b600060208201905081810360008301526126978184612452565b905092915050565b60006020820190506126b460008301846124c7565b92915050565b600060408201905081810360008301526126d481856124d6565b905081810360208301526126e881846124d6565b90509392505050565b6000606082019050818103600083015261270b81866124d6565b9050818103602083015261271f81856124d6565b9050818103604083015261273381846124d6565b9050949350505050565b600060608201905081810360008301526127578186612579565b9050818103602083015261276b8185612579565b9050818103604083015261277f8184612579565b9050949350505050565b600060208201905061279e6000830184612640565b92915050565b600060c0820190506127b96000830189612640565b81810360208301526127cb81886124d6565b905081810360408301526127df81876124d6565b905081810360608301526127f381866124d6565b9050818103608083015261280781856124d6565b905081810360a083015261281b81846124d6565b9050979650505050505050565b6000604051905081810181811067ffffffffffffffff8211171561284b57600080fd5b8060405250919050565b600067ffffffffffffffff82111561286c57600080fd5b601f19601f8301169050602081019050919050565b600067ffffffffffffffff82111561289857600080fd5b601f19601f8301169050602081019050919050565b6000819050602082019050919050565b60008190508160005260206000209050919050565b600081519050919050565b600081519050919050565b600081519050919050565b6000602082019050919050565b600082825260208201905092915050565b600082825260208201905092915050565b600082825260208201905092915050565b600081905092915050565b60008115159050919050565b6000819050919050565b82818337600083830152505050565b60005b83811015612981578082015181840152602081019050612966565b83811115612990576000848401525b50505050565b6000601f19601f830116905091905056fea365627a7a72315820eb6da55a44c5a4f5628e1fede6a048eeca37087aada67462cc3a9e2a3457fe886c6578706572696d656e74616cf564736f6c63430005100040",
  "source": "// SPDX-License-Identifier: GPL-3.0\r\npragma solidity ^0.5.16;\r\npragma experimental ABIEncoderV2;\r\n\r\n\r\n//test data:\r\n// createCustomer =>  \"1e8ffd7005b81ace8bbbf148f0af1fa7\",\"Abhishek\",\"9284903101\" \r\n                    //    \"64dc070868dfd4098166a1848dc3b2f8\" ,\"987268389682\", \"raj\",   \r\n// getCustomeDetails => 426614174000\r\n// craeteReatiler => \"fdea9301c28d13edc5de9cb7943cccbb\", \"tets retailer\", \"20.593683 78.962883\"\r\n//createCode => \"92830\",\"Adidas\",\"This Is nike Shoes\",\"292fdc84156e204259df3fe88014667a\",\"20.593683 78.962883\"\r\n\r\n// Product custoructoer\r\n//  struct Product{\r\n    //     address creator;\r\n    //     string productName;\r\n    //     uint256 productId;\r\n    //     string date;\r\n    //     string totalState;\r\n    //     mapping (uint256 => State) positions;\r\n    // }\r\n    \r\n    // struct State{\r\n    //     string description;\r\n    //     address person;\r\n    // }\r\n\r\ncontract Authentifier{\r\n    struct Customer{\r\n        string name;\r\n        string phone;\r\n        string hashid;\r\n        string[] codes;\r\n        \r\n    }\r\n    struct Retailer{\r\n        string name;\r\n        string location;\r\n        string hashid;\r\n    }\r\n    \r\n    struct Productcode {\r\n        string code;\r\n        uint status;\r\n        string brand;\r\n        string description;\r\n        string manufactuerhash;\r\n        string manufactuerLocation;\r\n        string retailer;\r\n        string [] owner;\r\n    }\r\n    \r\n    // \r\n    mapping(string => Retailer) public retailer;\r\n    mapping(string => Customer) public customers;\r\n    mapping(string => Productcode) products;\r\n    \r\n    function createCustomer(string memory _id, string memory _name, string memory _phone) public payable returns(uint) {\r\n        Customer memory newCustomer;\r\n        newCustomer.name = _name;\r\n        newCustomer.phone = _phone;\r\n        newCustomer.hashid = _id;\r\n        customers[_id] = newCustomer;\r\n        // customers[_id] = Customer(_name, _phone, _id);\r\n        return 1;\r\n    }\r\n    \r\n    function getCustomeDetails(string memory _id) public view returns(string memory, string memory, string memory){\r\n        return(customers[_id].hashid, customers[_id].name, customers[_id].phone);\r\n    }\r\n    \r\n    function createReatiler(string memory _id, string memory _name, string memory _location) public payable returns(bool) {\r\n        retailer[_id] = Retailer(_name, _location, _id);\r\n        return true;\r\n    }\r\n     function getRetailerDetails(string memory _id) public view returns(string memory, string memory, string memory){\r\n        return(retailer[_id].hashid, retailer[_id].name, retailer[_id].location);\r\n    }\r\n    \r\n    function createCode (\r\n    string memory _code, \r\n    string memory _brand, \r\n    string memory _description, \r\n    string memory _manufacturehash, \r\n    string memory _manufactuerLocation\r\n    ) \r\n    public payable returns(uint) \r\n    {\r\n        Productcode memory newProduct;\r\n        newProduct.code = _code;\r\n        newProduct.brand = _brand;\r\n        newProduct.description = _description;\r\n        newProduct.manufactuerhash = _manufacturehash;\r\n        newProduct.manufactuerLocation = _manufactuerLocation;\r\n        products[_code] = newProduct;\r\n        \r\n        // products[_code] = Productcode(_code, _status, _brand, _description, _manufacturehash, _manufactuerLocation, _retailer, []);\r\n        return 1;\r\n    }\r\n    \r\n    function getProductDeailes (string memory _code) \r\n    public view \r\n    returns ( uint, string memory, string memory, string memory, string memory, string memory)\r\n    {\r\n        return( \r\n            products[_code].status, \r\n            products[_code].brand, \r\n            products[_code].description, \r\n            products[_code].manufactuerhash,\r\n            products[_code].manufactuerLocation, \r\n            products[_code].retailer\r\n            // products[_code].owner\r\n            );\r\n    } \r\n    function getOwnedProductDetails(string memory _code) public view returns(string memory, string memory){\r\n        return (retailer[products[_code].retailer].name, retailer[products[_code].retailer].location);\r\n    } \r\n    function addRetailerToCode(string memory _code, string memory _retailerHash) public payable returns(uint) {\r\n        products[_code].retailer = _retailerHash;\r\n        return 1;\r\n    }\r\n        \r\n    function setInitialOwner(string memory _code, string memory _retailer, string memory _customer) public payable returns(uint) {  \r\n        if(compareStrings(products[_code].retailer, _retailer)){\r\n            if(compareStrings(customers[_customer].hashid, _customer)){\r\n                products[_code].owner.push(_customer);\r\n                products[_code].status = 1;\r\n                uint length = customers[_customer].codes.length;\r\n                if(length == 0){\r\n                    customers[_customer].codes.push(_code);\r\n                }\r\n                else{\r\n                    customers[_customer].codes[length - 1] = _code;\r\n                }\r\n                return 1;\r\n            }\r\n        }\r\n        return 0;\r\n    }\r\n    function changeOwner(string memory _code, string memory _newCustomer, string memory _oldCustomer) public payable returns(uint){\r\n        uint i;\r\n        bool flag = false;\r\n         //Creating objects for code,oldCustomer,newCustomer\r\n         Productcode memory product = products[_code];\r\n         uint len_product_owner = product.owner.length;\r\n    }\r\n    function getCodes(string memory _customer) public view returns(string[] memory ) {\r\n        return customers[_customer].codes;\r\n    }\r\n    function compareStrings(string memory a, string memory b) public view returns (bool) {\r\n    return (keccak256(abi.encodePacked((a))) == keccak256(abi.encodePacked((b))));\r\n    }\r\n        // Function to delete an element from an array\r\n    function remove(uint index, string[] storage array) internal returns(bool) {\r\n        if (index >= array.length)\r\n            return false;\r\n\r\n        for (uint i = index; i < array.length-1; i++) {\r\n            array[i] = array[i+1];\r\n        }\r\n        delete array[array.length-1];\r\n        return true;\r\n    }\r\n}\r\n    \r\n    \r\n",
  "sourcePath": "G:/Blockchain Developement/authenitfy/contracts/Authentifi.sol",
  "compiler": {
    "name": "solc",
    "version": "0.5.16+commit.9c3226ce.Emscripten.clang"
  },
  "schemaVersion": "3.4.1",
  "updatedAt": "2021-09-29T08:52:58.646Z",
  "devdoc": {
    "methods": {}
  },
  "userdoc": {
    "methods": {}
  }
}