{
  "contractName": "Authentifi",
  "abi": [
    {
      "constant": true,
      "inputs": [
        {
          "internalType": "string",
          "name": "",
          "type": "string"
        }
      ],
      "name": "customers",
      "outputs": [
        {
          "internalType": "string",
          "name": "name",
          "type": "string"
        },
        {
          "internalType": "string",
          "name": "phone",
          "type": "string"
        },
        {
          "internalType": "string",
          "name": "hashid",
          "type": "string"
        }
      ],
      "payable": false,
      "stateMutability": "view",
      "type": "function"
    },
    {
      "constant": true,
      "inputs": [
        {
          "internalType": "string",
          "name": "",
          "type": "string"
        }
      ],
      "name": "retailer",
      "outputs": [
        {
          "internalType": "string",
          "name": "name",
          "type": "string"
        },
        {
          "internalType": "string",
          "name": "location",
          "type": "string"
        },
        {
          "internalType": "string",
          "name": "hashid",
          "type": "string"
        }
      ],
      "payable": false,
      "stateMutability": "view",
      "type": "function"
    },
    {
      "constant": false,
      "inputs": [
        {
          "internalType": "string",
          "name": "_id",
          "type": "string"
        },
        {
          "internalType": "string",
          "name": "_name",
          "type": "string"
        },
        {
          "internalType": "string",
          "name": "_phone",
          "type": "string"
        }
      ],
      "name": "createCustomer",
      "outputs": [
        {
          "internalType": "uint256",
          "name": "",
          "type": "uint256"
        }
      ],
      "payable": true,
      "stateMutability": "payable",
      "type": "function"
    },
    {
      "constant": true,
      "inputs": [
        {
          "internalType": "string",
          "name": "_id",
          "type": "string"
        }
      ],
      "name": "getCustomeDetails",
      "outputs": [
        {
          "internalType": "string",
          "name": "",
          "type": "string"
        },
        {
          "internalType": "string",
          "name": "",
          "type": "string"
        },
        {
          "internalType": "string",
          "name": "",
          "type": "string"
        }
      ],
      "payable": false,
      "stateMutability": "view",
      "type": "function"
    },
    {
      "constant": false,
      "inputs": [
        {
          "internalType": "string",
          "name": "_id",
          "type": "string"
        },
        {
          "internalType": "string",
          "name": "_name",
          "type": "string"
        },
        {
          "internalType": "string",
          "name": "_location",
          "type": "string"
        }
      ],
      "name": "createReatiler",
      "outputs": [
        {
          "internalType": "bool",
          "name": "",
          "type": "bool"
        }
      ],
      "payable": true,
      "stateMutability": "payable",
      "type": "function"
    },
    {
      "constant": true,
      "inputs": [
        {
          "internalType": "string",
          "name": "_id",
          "type": "string"
        }
      ],
      "name": "getRetailerDetails",
      "outputs": [
        {
          "internalType": "string",
          "name": "",
          "type": "string"
        },
        {
          "internalType": "string",
          "name": "",
          "type": "string"
        },
        {
          "internalType": "string",
          "name": "",
          "type": "string"
        }
      ],
      "payable": false,
      "stateMutability": "view",
      "type": "function"
    },
    {
      "constant": false,
      "inputs": [
        {
          "internalType": "string",
          "name": "_code",
          "type": "string"
        },
        {
          "internalType": "string",
          "name": "_brand",
          "type": "string"
        },
        {
          "internalType": "string",
          "name": "_description",
          "type": "string"
        },
        {
          "internalType": "string",
          "name": "_manufacturehash",
          "type": "string"
        },
        {
          "internalType": "string",
          "name": "_manufactuerLocation",
          "type": "string"
        }
      ],
      "name": "createCode",
      "outputs": [
        {
          "internalType": "uint256",
          "name": "",
          "type": "uint256"
        }
      ],
      "payable": true,
      "stateMutability": "payable",
      "type": "function"
    },
    {
      "constant": true,
      "inputs": [
        {
          "internalType": "string",
          "name": "_code",
          "type": "string"
        }
      ],
      "name": "getProductDeailes",
      "outputs": [
        {
          "internalType": "uint256",
          "name": "",
          "type": "uint256"
        },
        {
          "internalType": "string",
          "name": "",
          "type": "string"
        },
        {
          "internalType": "string",
          "name": "",
          "type": "string"
        },
        {
          "internalType": "string",
          "name": "",
          "type": "string"
        },
        {
          "internalType": "string",
          "name": "",
          "type": "string"
        },
        {
          "internalType": "string",
          "name": "",
          "type": "string"
        }
      ],
      "payable": false,
      "stateMutability": "view",
      "type": "function"
    },
    {
      "constant": true,
      "inputs": [
        {
          "internalType": "string",
          "name": "_code",
          "type": "string"
        }
      ],
      "name": "getOwnedProductDetails",
      "outputs": [
        {
          "internalType": "string",
          "name": "",
          "type": "string"
        },
        {
          "internalType": "string",
          "name": "",
          "type": "string"
        }
      ],
      "payable": false,
      "stateMutability": "view",
      "type": "function"
    },
    {
      "constant": false,
      "inputs": [
        {
          "internalType": "string",
          "name": "_code",
          "type": "string"
        },
        {
          "internalType": "string",
          "name": "_retailerHash",
          "type": "string"
        }
      ],
      "name": "addRetailerToCode",
      "outputs": [
        {
          "internalType": "uint256",
          "name": "",
          "type": "uint256"
        }
      ],
      "payable": true,
      "stateMutability": "payable",
      "type": "function"
    },
    {
      "constant": false,
      "inputs": [
        {
          "internalType": "string",
          "name": "_code",
          "type": "string"
        },
        {
          "internalType": "string",
          "name": "_retailer",
          "type": "string"
        },
        {
          "internalType": "string",
          "name": "_customer",
          "type": "string"
        }
      ],
      "name": "setInitialOwner",
      "outputs": [
        {
          "internalType": "uint256",
          "name": "",
          "type": "uint256"
        }
      ],
      "payable": true,
      "stateMutability": "payable",
      "type": "function"
    },
    {
      "constant": false,
      "inputs": [
        {
          "internalType": "string",
          "name": "_code",
          "type": "string"
        },
        {
          "internalType": "string",
          "name": "_newCustomer",
          "type": "string"
        },
        {
          "internalType": "string",
          "name": "_oldCustomer",
          "type": "string"
        }
      ],
      "name": "changeOwner",
      "outputs": [
        {
          "internalType": "uint256",
          "name": "",
          "type": "uint256"
        }
      ],
      "payable": true,
      "stateMutability": "payable",
      "type": "function"
    },
    {
      "constant": true,
      "inputs": [
        {
          "internalType": "string",
          "name": "_customer",
          "type": "string"
        }
      ],
      "name": "getCodes",
      "outputs": [
        {
          "internalType": "string[]",
          "name": "",
          "type": "string[]"
        }
      ],
      "payable": false,
      "stateMutability": "view",
      "type": "function"
    },
    {
      "constant": true,
      "inputs": [
        {
          "internalType": "string",
          "name": "a",
          "type": "string"
        },
        {
          "internalType": "string",
          "name": "b",
          "type": "string"
        }
      ],
      "name": "compareStrings",
      "outputs": [
        {
          "internalType": "bool",
          "name": "",
          "type": "bool"
        }
      ],
      "payable": false,
      "stateMutability": "view",
      "type": "function"
    }
  ],
  "bytecode": "0x608060405234801561001057600080fd5b5061354c806100206000396000f3fe6080604052600436106100dd5760003560e01c8063b64b002c1161007f578063ceff2efc11610059578063ceff2efc1461031c578063ea788dd11461034c578063ff4e36a41461038b578063ff901040146103bb576100dd565b8063b64b002c1461025e578063b96574b71461029d578063bed34bba146102df576100dd565b80636205b08b116100bb5780636205b08b1461018057806393a02a0f146101b0578063a82c98d0146101ef578063b3e19d1a1461022e576100dd565b80632b7cc35a146100e2578063306418621461011257806355b059e814610150575b600080fd5b6100fc60048036036100f79190810190612eb1565b6103f8565b60405161010991906132eb565b60405180910390f35b34801561011e57600080fd5b5061013960048036036101349190810190612d6d565b610534565b60405161014792919061321c565b60405180910390f35b61016a60048036036101659190810190612e1a565b6106fa565b60405161017791906132eb565b60405180910390f35b61019a60048036036101959190810190612e1a565b6107c1565b6040516101a79190613201565b60405180910390f35b3480156101bc57600080fd5b506101d760048036036101d29190810190612d6d565b610861565b6040516101e693929190613253565b60405180910390f35b3480156101fb57600080fd5b5061021660048036036102119190810190612d2c565b610aaa565b6040516102259392919061329f565b60405180910390f35b61024860048036036102439190810190612dae565b610cb2565b60405161025591906132eb565b60405180910390f35b34801561026a57600080fd5b5061028560048036036102809190810190612d2c565b610cf4565b6040516102949392919061329f565b60405180910390f35b3480156102a957600080fd5b506102c460048036036102bf9190810190612d6d565b610efc565b6040516102d696959493929190613306565b60405180910390f35b3480156102eb57600080fd5b5061030660048036036103019190810190612dae565b6112ee565b6040516103139190613201565b60405180910390f35b61033660048036036103319190810190612e1a565b611347565b60405161034391906132eb565b60405180910390f35b34801561035857600080fd5b50610373600480360361036e9190810190612d6d565b612158565b60405161038293929190613253565b60405180910390f35b6103a560048036036103a09190810190612e1a565b6123a1565b6040516103b291906132eb565b60405180910390f35b3480156103c757600080fd5b506103e260048036036103dd9190810190612d6d565b6127d1565b6040516103ef91906131df565b60405180910390f35b6000610402612997565b868160000181905250858160400181905250848160600181905250838160800181905250828160a001819052508060028860405161044091906131b1565b9081526020016040518091039020600082015181600001908051906020019061046a9291906129dc565b506020820151816001015560408201518160020190805190602001906104919291906129dc565b5060608201518160030190805190602001906104ae9291906129dc565b5060808201518160040190805190602001906104cb9291906129dc565b5060a08201518160050190805190602001906104e89291906129dc565b5060c08201518160060190805190602001906105059291906129dc565b5060e0820151816007019080519060200190610522929190612a5c565b50905050600191505095945050505050565b606080600060028460405161054991906131b1565b908152602001604051809103902060060160405161056791906131c8565b9081526020016040518091039020600001600060028560405161058a91906131b1565b90815260200160405180910390206006016040516105a891906131c8565b9081526020016040518091039020600101818054600181600116156101000203166002900480601f01602080910402602001604051908101604052809291908181526020018280546001816001161561010002031660029004801561064e5780601f106106235761010080835404028352916020019161064e565b820191906000526020600020905b81548152906001019060200180831161063157829003601f168201915b50505050509150808054600181600116156101000203166002900480601f0160208091040260200160405190810160405280929190818152602001828054600181600116156101000203166002900480156106ea5780601f106106bf576101008083540402835291602001916106ea565b820191906000526020600020905b8154815290600101906020018083116106cd57829003601f168201915b5050505050905091509150915091565b6000610704612abc565b8381600001819052508281602001819052508481604001819052508060018660405161073091906131b1565b9081526020016040518091039020600082015181600001908051906020019061075a9291906129dc565b5060208201518160010190805190602001906107779291906129dc565b5060408201518160020190805190602001906107949291906129dc565b5060608201518160030190805190602001906107b1929190612a5c565b5090505060019150509392505050565b60006040518060600160405280848152602001838152602001858152506000856040516107ee91906131b1565b908152602001604051809103902060008201518160000190805190602001906108189291906129dc565b5060208201518160010190805190602001906108359291906129dc565b5060408201518160020190805190602001906108529291906129dc565b50905050600190509392505050565b606080606060018460405161087691906131b1565b908152602001604051809103902060020160018560405161089791906131b1565b90815260200160405180910390206000016001866040516108b891906131b1565b9081526020016040518091039020600101828054600181600116156101000203166002900480601f01602080910402602001604051908101604052809291908181526020018280546001816001161561010002031660029004801561095e5780601f106109335761010080835404028352916020019161095e565b820191906000526020600020905b81548152906001019060200180831161094157829003601f168201915b50505050509250818054600181600116156101000203166002900480601f0160208091040260200160405190810160405280929190818152602001828054600181600116156101000203166002900480156109fa5780601f106109cf576101008083540402835291602001916109fa565b820191906000526020600020905b8154815290600101906020018083116109dd57829003601f168201915b50505050509150808054600181600116156101000203166002900480601f016020809104026020016040519081016040528092919081815260200182805460018160011615610100020316600290048015610a965780601f10610a6b57610100808354040283529160200191610a96565b820191906000526020600020905b815481529060010190602001808311610a7957829003601f168201915b505050505090509250925092509193909250565b600181805160208101820180518482526020830160208501208183528095505050505050600091509050806000018054600181600116156101000203166002900480601f016020809104026020016040519081016040528092919081815260200182805460018160011615610100020316600290048015610b6c5780601f10610b4157610100808354040283529160200191610b6c565b820191906000526020600020905b815481529060010190602001808311610b4f57829003601f168201915b505050505090806001018054600181600116156101000203166002900480601f016020809104026020016040519081016040528092919081815260200182805460018160011615610100020316600290048015610c0a5780601f10610bdf57610100808354040283529160200191610c0a565b820191906000526020600020905b815481529060010190602001808311610bed57829003601f168201915b505050505090806002018054600181600116156101000203166002900480601f016020809104026020016040519081016040528092919081815260200182805460018160011615610100020316600290048015610ca85780601f10610c7d57610100808354040283529160200191610ca8565b820191906000526020600020905b815481529060010190602001808311610c8b57829003601f168201915b5050505050905083565b600081600284604051610cc591906131b1565b90815260200160405180910390206006019080519060200190610ce9929190612ae4565b506001905092915050565b600081805160208101820180518482526020830160208501208183528095505050505050600091509050806000018054600181600116156101000203166002900480601f016020809104026020016040519081016040528092919081815260200182805460018160011615610100020316600290048015610db65780601f10610d8b57610100808354040283529160200191610db6565b820191906000526020600020905b815481529060010190602001808311610d9957829003601f168201915b505050505090806001018054600181600116156101000203166002900480601f016020809104026020016040519081016040528092919081815260200182805460018160011615610100020316600290048015610e545780601f10610e2957610100808354040283529160200191610e54565b820191906000526020600020905b815481529060010190602001808311610e3757829003601f168201915b505050505090806002018054600181600116156101000203166002900480601f016020809104026020016040519081016040528092919081815260200182805460018160011615610100020316600290048015610ef25780601f10610ec757610100808354040283529160200191610ef2565b820191906000526020600020905b815481529060010190602001808311610ed557829003601f168201915b5050505050905083565b60006060806060806060600287604051610f1691906131b1565b908152602001604051809103902060010154600288604051610f3891906131b1565b9081526020016040518091039020600201600289604051610f5991906131b1565b908152602001604051809103902060030160028a604051610f7a91906131b1565b908152602001604051809103902060040160028b604051610f9b91906131b1565b908152602001604051809103902060050160028c604051610fbc91906131b1565b9081526020016040518091039020600601848054600181600116156101000203166002900480601f0160208091040260200160405190810160405280929190818152602001828054600181600116156101000203166002900480156110625780601f1061103757610100808354040283529160200191611062565b820191906000526020600020905b81548152906001019060200180831161104557829003601f168201915b50505050509450838054600181600116156101000203166002900480601f0160208091040260200160405190810160405280929190818152602001828054600181600116156101000203166002900480156110fe5780601f106110d3576101008083540402835291602001916110fe565b820191906000526020600020905b8154815290600101906020018083116110e157829003601f168201915b50505050509350828054600181600116156101000203166002900480601f01602080910402602001604051908101604052809291908181526020018280546001816001161561010002031660029004801561119a5780601f1061116f5761010080835404028352916020019161119a565b820191906000526020600020905b81548152906001019060200180831161117d57829003601f168201915b50505050509250818054600181600116156101000203166002900480601f0160208091040260200160405190810160405280929190818152602001828054600181600116156101000203166002900480156112365780601f1061120b57610100808354040283529160200191611236565b820191906000526020600020905b81548152906001019060200180831161121957829003601f168201915b50505050509150808054600181600116156101000203166002900480601f0160208091040260200160405190810160405280929190818152602001828054600181600116156101000203166002900480156112d25780601f106112a7576101008083540402835291602001916112d2565b820191906000526020600020905b8154815290600101906020018083116112b557829003601f168201915b5050505050905095509550955095509550955091939550919395565b60008160405160200161130191906131b1565b604051602081830303815290604052805190602001208360405160200161132891906131b1565b6040516020818303038152906040528051906020012014905092915050565b6000806000809050611357612997565b60028760405161136791906131b1565b908152602001604051809103902060405180610100016040529081600082018054600181600116156101000203166002900480601f01602080910402602001604051908101604052809291908181526020018280546001816001161561010002031660029004801561141a5780601f106113ef5761010080835404028352916020019161141a565b820191906000526020600020905b8154815290600101906020018083116113fd57829003601f168201915b5050505050815260200160018201548152602001600282018054600181600116156101000203166002900480601f0160208091040260200160405190810160405280929190818152602001828054600181600116156101000203166002900480156114c65780601f1061149b576101008083540402835291602001916114c6565b820191906000526020600020905b8154815290600101906020018083116114a957829003601f168201915b50505050508152602001600382018054600181600116156101000203166002900480601f0160208091040260200160405190810160405280929190818152602001828054600181600116156101000203166002900480156115685780601f1061153d57610100808354040283529160200191611568565b820191906000526020600020905b81548152906001019060200180831161154b57829003601f168201915b50505050508152602001600482018054600181600116156101000203166002900480601f01602080910402602001604051908101604052809291908181526020018280546001816001161561010002031660029004801561160a5780601f106115df5761010080835404028352916020019161160a565b820191906000526020600020905b8154815290600101906020018083116115ed57829003601f168201915b50505050508152602001600582018054600181600116156101000203166002900480601f0160208091040260200160405190810160405280929190818152602001828054600181600116156101000203166002900480156116ac5780601f10611681576101008083540402835291602001916116ac565b820191906000526020600020905b81548152906001019060200180831161168f57829003601f168201915b50505050508152602001600682018054600181600116156101000203166002900480601f01602080910402602001604051908101604052809291908181526020018280546001816001161561010002031660029004801561174e5780601f106117235761010080835404028352916020019161174e565b820191906000526020600020905b81548152906001019060200180831161173157829003601f168201915b5050505050815260200160078201805480602002602001604051908101604052809291908181526020016000905b82821015611838578382906000526020600020018054600181600116156101000203166002900480601f0160208091040260200160405190810160405280929190818152602001828054600181600116156101000203166002900480156118245780601f106117f957610100808354040283529160200191611824565b820191906000526020600020905b81548152906001019060200180831161180757829003601f168201915b50505050508152602001906001019061177c565b5050505081525050905060008160e00151519050611854612abc565b60018760405161186491906131b1565b9081526020016040518091039020604051806080016040529081600082018054600181600116156101000203166002900480601f0160208091040260200160405190810160405280929190818152602001828054600181600116156101000203166002900480156119165780601f106118eb57610100808354040283529160200191611916565b820191906000526020600020905b8154815290600101906020018083116118f957829003601f168201915b50505050508152602001600182018054600181600116156101000203166002900480601f0160208091040260200160405190810160405280929190818152602001828054600181600116156101000203166002900480156119b85780601f1061198d576101008083540402835291602001916119b8565b820191906000526020600020905b81548152906001019060200180831161199b57829003601f168201915b50505050508152602001600282018054600181600116156101000203166002900480601f016020809104026020016040519081016040528092919081815260200182805460018160011615610100020316600290048015611a5a5780601f10611a2f57610100808354040283529160200191611a5a565b820191906000526020600020905b815481529060010190602001808311611a3d57829003601f168201915b5050505050815260200160038201805480602002602001604051908101604052809291908181526020016000905b82821015611b44578382906000526020600020018054600181600116156101000203166002900480601f016020809104026020016040519081016040528092919081815260200182805460018160011615610100020316600290048015611b305780601f10611b0557610100808354040283529160200191611b30565b820191906000526020600020905b815481529060010190602001808311611b1357829003601f168201915b505050505081526020019060010190611a88565b5050505081525050905060008160600151519050611b60612abc565b60018a604051611b7091906131b1565b9081526020016040518091039020604051806080016040529081600082018054600181600116156101000203166002900480601f016020809104026020016040519081016040528092919081815260200182805460018160011615610100020316600290048015611c225780601f10611bf757610100808354040283529160200191611c22565b820191906000526020600020905b815481529060010190602001808311611c0557829003601f168201915b50505050508152602001600182018054600181600116156101000203166002900480601f016020809104026020016040519081016040528092919081815260200182805460018160011615610100020316600290048015611cc45780601f10611c9957610100808354040283529160200191611cc4565b820191906000526020600020905b815481529060010190602001808311611ca757829003601f168201915b50505050508152602001600282018054600181600116156101000203166002900480601f016020809104026020016040519081016040528092919081815260200182805460018160011615610100020316600290048015611d665780601f10611d3b57610100808354040283529160200191611d66565b820191906000526020600020905b815481529060010190602001808311611d4957829003601f168201915b5050505050815260200160038201805480602002602001604051908101604052809291908181526020016000905b82821015611e50578382906000526020600020018054600181600116156101000203166002900480601f016020809104026020016040519081016040528092919081815260200182805460018160011615610100020316600290048015611e3c5780601f10611e1157610100808354040283529160200191611e3c565b820191906000526020600020905b815481529060010190602001808311611e1f57829003601f168201915b505050505081526020019060010190611d94565b50505050815250509050600096505b818711611ea257611e8783606001518881518110611e7957fe5b60200260200101518c6112ee565b15611e955760019550611ea2565b8680600101975050611e5f565b600115158615151415611f3f57600096505b838711611f3e57611edc8560e001518881518110611ece57fe5b60200260200101518a6112ee565b15611f31578960028c604051611ef291906131b1565b90815260200160405180910390206007018881548110611f0e57fe5b906000526020600020019080519060200190611f2b929190612ae4565b50611f3e565b8680600101975050611eb4565b5b60009650818710156121495761202360018a604051611f5e91906131b1565b90815260200160405180910390206003018881548110611f7a57fe5b906000526020600020018054600181600116156101000203166002900480601f0160208091040260200160405190810160405280929190818152602001828054600181600116156101000203166002900480156120185780601f10611fed57610100808354040283529160200191612018565b820191906000526020600020905b815481529060010190602001808311611ffb57829003601f168201915b50505050508c6112ee565b15612139576120528760018b60405161203c91906131b1565b90815260200160405180910390206003016128db565b50600060018b60405161206591906131b1565b908152602001604051809103902060030180549050905060008114156120e85760018b60405161209591906131b1565b90815260200160405180910390206003018c90806001815401808255809150509060018203906000526020600020016000909192909190915090805190602001906120e1929190612ae4565b5050612137565b8b60018c6040516120f991906131b1565b9081526020016040518091039020600301600183038154811061211857fe5b906000526020600020019080519060200190612135929190612ae4565b505b505b6001975050505050505050612151565b505050505050505b9392505050565b606080606060008460405161216d91906131b1565b908152602001604051809103902060020160008560405161218e91906131b1565b90815260200160405180910390206000016000866040516121af91906131b1565b9081526020016040518091039020600101828054600181600116156101000203166002900480601f0160208091040260200160405190810160405280929190818152602001828054600181600116156101000203166002900480156122555780601f1061222a57610100808354040283529160200191612255565b820191906000526020600020905b81548152906001019060200180831161223857829003601f168201915b50505050509250818054600181600116156101000203166002900480601f0160208091040260200160405190810160405280929190818152602001828054600181600116156101000203166002900480156122f15780601f106122c6576101008083540402835291602001916122f1565b820191906000526020600020905b8154815290600101906020018083116122d457829003601f168201915b50505050509150808054600181600116156101000203166002900480601f01602080910402602001604051908101604052809291908181526020018280546001816001161561010002031660029004801561238d5780601f106123625761010080835404028352916020019161238d565b820191906000526020600020905b81548152906001019060200180831161237057829003601f168201915b505050505090509250925092509193909250565b60006124666002856040516123b691906131b1565b90815260200160405180910390206006018054600181600116156101000203166002900480601f01602080910402602001604051908101604052809291908181526020018280546001816001161561010002031660029004801561245b5780601f106124305761010080835404028352916020019161245b565b820191906000526020600020905b81548152906001019060200180831161243e57829003601f168201915b5050505050846112ee565b156127c55761252e60018360405161247e91906131b1565b90815260200160405180910390206002018054600181600116156101000203166002900480601f0160208091040260200160405190810160405280929190818152602001828054600181600116156101000203166002900480156125235780601f106124f857610100808354040283529160200191612523565b820191906000526020600020905b81548152906001019060200180831161250657829003601f168201915b5050505050836112ee565b156127c45760028460405161254391906131b1565b908152602001604051809103902060070182908060018154018082558091505090600182039060005260206000200160009091929091909150908051906020019061258f929190612ae4565b505060016002856040516125a391906131b1565b90815260200160405180910390206001018190555060006001836040516125ca91906131b1565b908152602001604051809103902060030180549050905060008114156126dc576001836040516125fa91906131b1565b9081526020016040518091039020600301859080600181540180825580915050906001820390600052602060002001600090919290919091509080519060200190612646929190612ae4565b505060018360405161265891906131b1565b90815260200160405180910390206003018060018154018082558091505090600182039060005260206000200160006040518060400160405280600481526020017f6861636b00000000000000000000000000000000000000000000000000000000815250909190915090805190602001906126d5929190612ae4565b50506127ba565b846001846040516126ed91906131b1565b9081526020016040518091039020600301600183038154811061270c57fe5b906000526020600020019080519060200190612729929190612ae4565b5060018360405161273a91906131b1565b90815260200160405180910390206003018060018154018082558091505090600182039060005260206000200160006040518060400160405280600481526020017f6861636b00000000000000000000000000000000000000000000000000000000815250909190915090805190602001906127b7929190612ae4565b50505b60019150506127ca565b5b600090505b9392505050565b60606001826040516127e391906131b1565b9081526020016040518091039020600301805480602002602001604051908101604052809291908181526020016000905b828210156128d0578382906000526020600020018054600181600116156101000203166002900480601f0160208091040260200160405190810160405280929190818152602001828054600181600116156101000203166002900480156128bc5780601f10612891576101008083540402835291602001916128bc565b820191906000526020600020905b81548152906001019060200180831161289f57829003601f168201915b505050505081526020019060010190612814565b505050509050919050565b6000818054905083106128f15760009050612991565b60008390505b60018380549050038110156129625782600182018154811061291557fe5b9060005260206000200183828154811061292b57fe5b906000526020600020019080546001816001161561010002031660029004612954929190612b64565b5080806001019150506128f7565b508160018380549050038154811061297657fe5b90600052602060002001600061298c9190612beb565b600190505b92915050565b60405180610100016040528060608152602001600081526020016060815260200160608152602001606081526020016060815260200160608152602001606081525090565b828054600181600116156101000203166002900490600052602060002090601f016020900481019282601f10612a1d57805160ff1916838001178555612a4b565b82800160010185558215612a4b579182015b82811115612a4a578251825591602001919060010190612a2f565b5b509050612a589190612c33565b5090565b828054828255906000526020600020908101928215612aab579160200282015b82811115612aaa578251829080519060200190612a9a9291906129dc565b5091602001919060010190612a7c565b5b509050612ab89190612c58565b5090565b6040518060800160405280606081526020016060815260200160608152602001606081525090565b828054600181600116156101000203166002900490600052602060002090601f016020900481019282601f10612b2557805160ff1916838001178555612b53565b82800160010185558215612b53579182015b82811115612b52578251825591602001919060010190612b37565b5b509050612b609190612c33565b5090565b828054600181600116156101000203166002900490600052602060002090601f016020900481019282601f10612b9d5780548555612bda565b82800160010185558215612bda57600052602060002091601f016020900482015b82811115612bd9578254825591600101919060010190612bbe565b5b509050612be79190612c33565b5090565b50805460018160011615610100020316600290046000825580601f10612c115750612c30565b601f016020900490600052602060002090810190612c2f9190612c33565b5b50565b612c5591905b80821115612c51576000816000905550600101612c39565b5090565b90565b612c8191905b80821115612c7d5760008181612c749190612beb565b50600101612c5e565b5090565b90565b600082601f830112612c9557600080fd5b8135612ca8612ca3826133b7565b61338a565b91508082526020830160208301858383011115612cc457600080fd5b612ccf8382846134b6565b50505092915050565b600082601f830112612ce957600080fd5b8135612cfc612cf7826133e3565b61338a565b91508082526020830160208301858383011115612d1857600080fd5b612d238382846134b6565b50505092915050565b600060208284031215612d3e57600080fd5b600082013567ffffffffffffffff811115612d5857600080fd5b612d6484828501612c84565b91505092915050565b600060208284031215612d7f57600080fd5b600082013567ffffffffffffffff811115612d9957600080fd5b612da584828501612cd8565b91505092915050565b60008060408385031215612dc157600080fd5b600083013567ffffffffffffffff811115612ddb57600080fd5b612de785828601612cd8565b925050602083013567ffffffffffffffff811115612e0457600080fd5b612e1085828601612cd8565b9150509250929050565b600080600060608486031215612e2f57600080fd5b600084013567ffffffffffffffff811115612e4957600080fd5b612e5586828701612cd8565b935050602084013567ffffffffffffffff811115612e7257600080fd5b612e7e86828701612cd8565b925050604084013567ffffffffffffffff811115612e9b57600080fd5b612ea786828701612cd8565b9150509250925092565b600080600080600060a08688031215612ec957600080fd5b600086013567ffffffffffffffff811115612ee357600080fd5b612eef88828901612cd8565b955050602086013567ffffffffffffffff811115612f0c57600080fd5b612f1888828901612cd8565b945050604086013567ffffffffffffffff811115612f3557600080fd5b612f4188828901612cd8565b935050606086013567ffffffffffffffff811115612f5e57600080fd5b612f6a88828901612cd8565b925050608086013567ffffffffffffffff811115612f8757600080fd5b612f9388828901612cd8565b9150509295509295909350565b6000612fac83836130a2565b905092915050565b6000612fbf82613434565b612fc98185613462565b935083602082028501612fdb8561340f565b8060005b858110156130175784840389528151612ff88582612fa0565b945061300383613455565b925060208a01995050600181019050612fdf565b50829750879550505050505092915050565b613032816134a0565b82525050565b60006130438261344a565b61304d8185613484565b935061305d8185602086016134c5565b613066816134f8565b840191505092915050565b600061307c8261344a565b6130868185613495565b93506130968185602086016134c5565b80840191505092915050565b60006130ad8261343f565b6130b78185613473565b93506130c78185602086016134c5565b6130d0816134f8565b840191505092915050565b60006130e68261343f565b6130f08185613484565b93506131008185602086016134c5565b613109816134f8565b840191505092915050565b60008154600181166000811461313157600181146131565761319a565b607f60028304166131428187613495565b955060ff198316865280860193505061319a565b600282046131648187613495565b955061316f8561341f565b60005b8281101561319157815481890152600182019150602081019050613172565b82880195505050505b505092915050565b6131ab816134ac565b82525050565b60006131bd8284613071565b915081905092915050565b60006131d48284613114565b915081905092915050565b600060208201905081810360008301526131f98184612fb4565b905092915050565b60006020820190506132166000830184613029565b92915050565b600060408201905081810360008301526132368185613038565b9050818103602083015261324a8184613038565b90509392505050565b6000606082019050818103600083015261326d8186613038565b905081810360208301526132818185613038565b905081810360408301526132958184613038565b9050949350505050565b600060608201905081810360008301526132b981866130db565b905081810360208301526132cd81856130db565b905081810360408301526132e181846130db565b9050949350505050565b600060208201905061330060008301846131a2565b92915050565b600060c08201905061331b60008301896131a2565b818103602083015261332d8188613038565b905081810360408301526133418187613038565b905081810360608301526133558186613038565b905081810360808301526133698185613038565b905081810360a083015261337d8184613038565b9050979650505050505050565b6000604051905081810181811067ffffffffffffffff821117156133ad57600080fd5b8060405250919050565b600067ffffffffffffffff8211156133ce57600080fd5b601f19601f8301169050602081019050919050565b600067ffffffffffffffff8211156133fa57600080fd5b601f19601f8301169050602081019050919050565b6000819050602082019050919050565b60008190508160005260206000209050919050565b600081519050919050565b600081519050919050565b600081519050919050565b6000602082019050919050565b600082825260208201905092915050565b600082825260208201905092915050565b600082825260208201905092915050565b600081905092915050565b60008115159050919050565b6000819050919050565b82818337600083830152505050565b60005b838110156134e35780820151818401526020810190506134c8565b838111156134f2576000848401525b50505050565b6000601f19601f830116905091905056fea365627a7a72315820591d43315ff739c4401aa4d4be26ee98f8b367f5207261b0042d74c063b25d296c6578706572696d656e74616cf564736f6c63430005100040",
  "source": "// SPDX-License-Identifier: GPL-3.0\r\npragma solidity ^0.5.16;\r\npragma experimental ABIEncoderV2;\r\n\r\n//test data:\r\n// createCustomer =>  \"1e8ffd7005b81ace8bbbf148f0af1fa7\",\"Abhishek\",\"9284903101\"\r\n//    \"64dc070868dfd4098166a1848dc3b2f8\" ,\"987268389682\", \"raj\",\r\n// getCustomeDetails => 426614174000\r\n// craeteReatiler => \"fdea9301c28d13edc5de9cb7943cccbb\", \"tets retailer\", \"20.593683 78.962883\"\r\n//createCode => \"92830\",\"Adidas\",\"This Is nike Shoes\",\"292fdc84156e204259df3fe88014667a\",\"20.593683 78.962883\"\r\n\r\n// Product custoructoer\r\n//  struct Product{\r\n//     address creator;\r\n//     string productName;\r\n//     uint256 productId;\r\n//     string date;\r\n//     string totalState;\r\n//     mapping (uint256 => State) positions;\r\n// }\r\n\r\n// struct State{\r\n//     string description;\r\n//     address person;\r\n// }\r\n\r\ncontract Authentifi {\r\n    struct Customer {\r\n        string name;\r\n        string phone;\r\n        string hashid;\r\n        string[] codes;\r\n    }\r\n    struct Retailer {\r\n        string name;\r\n        string location;\r\n        string hashid;\r\n    }\r\n\r\n    struct Productcode {\r\n        string code;\r\n        uint256 status;\r\n        string brand;\r\n        string description;\r\n        string manufactuerhash;\r\n        string manufactuerLocation;\r\n        string retailer;\r\n        string[] owner;\r\n    }\r\n\r\n    //\r\n    mapping(string => Retailer) public retailer;\r\n    mapping(string => Customer) public customers;\r\n    mapping(string => Productcode) products;\r\n\r\n    function createCustomer(\r\n        string memory _id,\r\n        string memory _name,\r\n        string memory _phone\r\n    ) public payable returns (uint256) {\r\n        Customer memory newCustomer;\r\n        newCustomer.name = _name;\r\n        newCustomer.phone = _phone;\r\n        newCustomer.hashid = _id;\r\n        customers[_id] = newCustomer;\r\n        // customers[_id] = Customer(_name, _phone, _id);\r\n        return 1;\r\n    }\r\n\r\n    function getCustomeDetails(string memory _id)\r\n        public\r\n        view\r\n        returns (\r\n            string memory,\r\n            string memory,\r\n            string memory\r\n        )\r\n    {\r\n        return (\r\n            customers[_id].hashid,\r\n            customers[_id].name,\r\n            customers[_id].phone\r\n        );\r\n    }\r\n\r\n    function createReatiler(\r\n        string memory _id,\r\n        string memory _name,\r\n        string memory _location\r\n    ) public payable returns (bool) {\r\n        retailer[_id] = Retailer(_name, _location, _id);\r\n        return true;\r\n    }\r\n\r\n    function getRetailerDetails(string memory _id)\r\n        public\r\n        view\r\n        returns (\r\n            string memory,\r\n            string memory,\r\n            string memory\r\n        )\r\n    {\r\n        return (\r\n            retailer[_id].hashid,\r\n            retailer[_id].name,\r\n            retailer[_id].location\r\n        );\r\n    }\r\n\r\n    function createCode(\r\n        string memory _code,\r\n        string memory _brand,\r\n        string memory _description,\r\n        string memory _manufacturehash,\r\n        string memory _manufactuerLocation\r\n    ) public payable returns (uint256) {\r\n        Productcode memory newProduct;\r\n        newProduct.code = _code;\r\n        newProduct.brand = _brand;\r\n        newProduct.description = _description;\r\n        newProduct.manufactuerhash = _manufacturehash;\r\n        newProduct.manufactuerLocation = _manufactuerLocation;\r\n        products[_code] = newProduct;\r\n\r\n        // products[_code] = Productcode(_code, _status, _brand, _description, _manufacturehash, _manufactuerLocation, _retailer, []);\r\n        return 1;\r\n    }\r\n\r\n    function getProductDeailes(string memory _code)\r\n        public\r\n        view\r\n        returns (\r\n            uint256,\r\n            string memory,\r\n            string memory,\r\n            string memory,\r\n            string memory,\r\n            string memory\r\n        )\r\n    {\r\n        return (\r\n            products[_code].status,\r\n            products[_code].brand,\r\n            products[_code].description,\r\n            products[_code].manufactuerhash,\r\n            products[_code].manufactuerLocation,\r\n            products[_code].retailer\r\n            // products[_code].owner\r\n        );\r\n    }\r\n\r\n    function getOwnedProductDetails(string memory _code)\r\n        public\r\n        view\r\n        returns (string memory, string memory)\r\n    {\r\n        return (\r\n            retailer[products[_code].retailer].name,\r\n            retailer[products[_code].retailer].location\r\n        );\r\n    }\r\n\r\n    function addRetailerToCode(string memory _code, string memory _retailerHash)\r\n        public\r\n        payable\r\n        returns (uint256)\r\n    {\r\n        products[_code].retailer = _retailerHash;\r\n        return 1;\r\n    }\r\n\r\n    function setInitialOwner(\r\n        string memory _code,\r\n        string memory _retailer,\r\n        string memory _customer\r\n    ) public payable returns (uint256) {\r\n        if (compareStrings(products[_code].retailer, _retailer)) {\r\n            if (compareStrings(customers[_customer].hashid, _customer)) {\r\n                products[_code].owner.push(_customer);\r\n                products[_code].status = 1;\r\n                uint256 length = customers[_customer].codes.length;\r\n                if (length == 0) {\r\n                    customers[_customer].codes.push(_code);\r\n                    customers[_customer].codes.push(\"hack\");\r\n                } else {\r\n                    customers[_customer].codes[length - 1] = _code;\r\n                    customers[_customer].codes.push(\"hack\");\r\n                }\r\n                return 1;\r\n            }\r\n        }\r\n        return 0;\r\n    }\r\n\r\n    function changeOwner(string memory _code, string memory _newCustomer, string memory _oldCustomer) public payable returns(uint){\r\n        uint i;\r\n        bool flag = false;\r\n         //Creating objects for code,oldCustomer,newCustomer\r\n         Productcode memory product = products[_code];\r\n         uint len_product_owner = product.owner.length;\r\n         //get old customer\r\n         Customer memory oldCustomer = customers[_oldCustomer];\r\n         uint len_old_customer_code = oldCustomer.codes.length;\r\n         //get new Customer\r\n         Customer memory newCustomer = customers[_newCustomer];\r\n         \r\n            //check if old customer is owner\r\n            for(i = 0; i <= len_old_customer_code; i++ ){\r\n                if(compareStrings(oldCustomer.codes[i], _code)){\r\n                    flag = true;\r\n                    break;\r\n                }\r\n            }\r\n            \r\n            if(flag == true){\r\n                //swapping old cutomer to new customer in product owner\r\n                for (i = 0; i <= len_product_owner; i++){\r\n                    if(compareStrings(product.owner[i], _oldCustomer)){\r\n                        products[_code].owner[i] = _newCustomer;\r\n                        break;\r\n                    }\r\n                }\r\n            }\r\n            \r\n            \r\n            for(i = 0; i < len_old_customer_code; i++){\r\n                if(compareStrings(customers[_oldCustomer].codes[i], _code)){\r\n                    remove(i, customers[_oldCustomer].codes);\r\n                    uint len_new_customer_code = customers[_newCustomer].codes.length;\r\n                    if(len_new_customer_code == 0){\r\n                        customers[_newCustomer].codes.push(_code);\r\n                    }\r\n                    else{\r\n                        customers[_newCustomer].codes[len_new_customer_code - 1] = _code;\r\n                    }\r\n                }\r\n                return 1;\r\n            }\r\n         \r\n    }\r\n    function getCodes(string memory _customer)\r\n        public\r\n        view\r\n        returns (string[] memory)\r\n    {\r\n        return customers[_customer].codes;\r\n    }\r\n\r\n    function compareStrings(string memory a, string memory b)\r\n        public\r\n        view\r\n        returns (bool)\r\n    {\r\n        return (keccak256(abi.encodePacked((a))) ==\r\n            keccak256(abi.encodePacked((b))));\r\n    }\r\n\r\n    // Function to delete an element from an array\r\n    function remove(uint256 index, string[] storage array)\r\n        internal\r\n        returns (bool)\r\n    {\r\n        if (index >= array.length) return false;\r\n\r\n        for (uint256 i = index; i < array.length - 1; i++) {\r\n            array[i] = array[i + 1];\r\n        }\r\n        delete array[array.length - 1];\r\n        return true;\r\n    }\r\n}\r\n",
  "sourcePath": "G:/Blockchain Developement/authenitfy/contracts/Authentifi.sol",
  "compiler": {
    "name": "solc",
    "version": "0.5.16+commit.9c3226ce.Emscripten.clang"
  },
  "schemaVersion": "3.4.1",
  "updatedAt": "2021-10-14T05:10:38.268Z",
  "networkType": "ethereum",
  "devdoc": {
    "methods": {}
  },
  "userdoc": {
    "methods": {}
  }
}