{
  "contractName": "Authentifi",
  "abi": [
    {
      "constant": true,
      "inputs": [
        {
          "internalType": "string",
          "name": "",
          "type": "string"
        }
      ],
      "name": "customers",
      "outputs": [
        {
          "internalType": "string",
          "name": "name",
          "type": "string"
        },
        {
          "internalType": "string",
          "name": "phone",
          "type": "string"
        },
        {
          "internalType": "string",
          "name": "hashid",
          "type": "string"
        }
      ],
      "payable": false,
      "stateMutability": "view",
      "type": "function"
    },
    {
      "constant": true,
      "inputs": [
        {
          "internalType": "string",
          "name": "",
          "type": "string"
        }
      ],
      "name": "retailer",
      "outputs": [
        {
          "internalType": "string",
          "name": "name",
          "type": "string"
        },
        {
          "internalType": "string",
          "name": "location",
          "type": "string"
        },
        {
          "internalType": "string",
          "name": "hashid",
          "type": "string"
        }
      ],
      "payable": false,
      "stateMutability": "view",
      "type": "function"
    },
    {
      "constant": false,
      "inputs": [
        {
          "internalType": "string",
          "name": "_id",
          "type": "string"
        },
        {
          "internalType": "string",
          "name": "_name",
          "type": "string"
        },
        {
          "internalType": "string",
          "name": "_phone",
          "type": "string"
        }
      ],
      "name": "createCustomer",
      "outputs": [
        {
          "internalType": "uint256",
          "name": "",
          "type": "uint256"
        }
      ],
      "payable": true,
      "stateMutability": "payable",
      "type": "function"
    },
    {
      "constant": true,
      "inputs": [
        {
          "internalType": "string",
          "name": "_id",
          "type": "string"
        }
      ],
      "name": "getCustomeDetails",
      "outputs": [
        {
          "internalType": "string",
          "name": "",
          "type": "string"
        },
        {
          "internalType": "string",
          "name": "",
          "type": "string"
        },
        {
          "internalType": "string",
          "name": "",
          "type": "string"
        }
      ],
      "payable": false,
      "stateMutability": "view",
      "type": "function"
    },
    {
      "constant": false,
      "inputs": [
        {
          "internalType": "string",
          "name": "_id",
          "type": "string"
        },
        {
          "internalType": "string",
          "name": "_name",
          "type": "string"
        },
        {
          "internalType": "string",
          "name": "_location",
          "type": "string"
        }
      ],
      "name": "createReatiler",
      "outputs": [
        {
          "internalType": "bool",
          "name": "",
          "type": "bool"
        }
      ],
      "payable": true,
      "stateMutability": "payable",
      "type": "function"
    },
    {
      "constant": true,
      "inputs": [
        {
          "internalType": "string",
          "name": "_id",
          "type": "string"
        }
      ],
      "name": "getRetailerDetails",
      "outputs": [
        {
          "internalType": "string",
          "name": "",
          "type": "string"
        },
        {
          "internalType": "string",
          "name": "",
          "type": "string"
        },
        {
          "internalType": "string",
          "name": "",
          "type": "string"
        }
      ],
      "payable": false,
      "stateMutability": "view",
      "type": "function"
    },
    {
      "constant": false,
      "inputs": [
        {
          "internalType": "string",
          "name": "_code",
          "type": "string"
        },
        {
          "internalType": "string",
          "name": "_brand",
          "type": "string"
        },
        {
          "internalType": "string",
          "name": "_description",
          "type": "string"
        },
        {
          "internalType": "string",
          "name": "_manufacturehash",
          "type": "string"
        },
        {
          "internalType": "string",
          "name": "_manufactuerLocation",
          "type": "string"
        }
      ],
      "name": "createCode",
      "outputs": [
        {
          "internalType": "uint256",
          "name": "",
          "type": "uint256"
        }
      ],
      "payable": true,
      "stateMutability": "payable",
      "type": "function"
    },
    {
      "constant": true,
      "inputs": [
        {
          "internalType": "string",
          "name": "_code",
          "type": "string"
        }
      ],
      "name": "getProductDeailes",
      "outputs": [
        {
          "internalType": "uint256",
          "name": "",
          "type": "uint256"
        },
        {
          "internalType": "string",
          "name": "",
          "type": "string"
        },
        {
          "internalType": "string",
          "name": "",
          "type": "string"
        },
        {
          "internalType": "string",
          "name": "",
          "type": "string"
        },
        {
          "internalType": "string",
          "name": "",
          "type": "string"
        },
        {
          "internalType": "string",
          "name": "",
          "type": "string"
        }
      ],
      "payable": false,
      "stateMutability": "view",
      "type": "function"
    },
    {
      "constant": true,
      "inputs": [
        {
          "internalType": "string",
          "name": "_code",
          "type": "string"
        }
      ],
      "name": "getOwnedProductDetails",
      "outputs": [
        {
          "internalType": "string",
          "name": "",
          "type": "string"
        },
        {
          "internalType": "string",
          "name": "",
          "type": "string"
        }
      ],
      "payable": false,
      "stateMutability": "view",
      "type": "function"
    },
    {
      "constant": false,
      "inputs": [
        {
          "internalType": "string",
          "name": "_code",
          "type": "string"
        },
        {
          "internalType": "string",
          "name": "_retailerHash",
          "type": "string"
        }
      ],
      "name": "addRetailerToCode",
      "outputs": [
        {
          "internalType": "uint256",
          "name": "",
          "type": "uint256"
        }
      ],
      "payable": true,
      "stateMutability": "payable",
      "type": "function"
    },
    {
      "constant": false,
      "inputs": [
        {
          "internalType": "string",
          "name": "_code",
          "type": "string"
        },
        {
          "internalType": "string",
          "name": "_retailer",
          "type": "string"
        },
        {
          "internalType": "string",
          "name": "_customer",
          "type": "string"
        }
      ],
      "name": "setInitialOwner",
      "outputs": [
        {
          "internalType": "uint256",
          "name": "",
          "type": "uint256"
        }
      ],
      "payable": true,
      "stateMutability": "payable",
      "type": "function"
    },
    {
      "constant": true,
      "inputs": [
        {
          "internalType": "string",
          "name": "_customer",
          "type": "string"
        }
      ],
      "name": "getCodes",
      "outputs": [
        {
          "internalType": "string[]",
          "name": "",
          "type": "string[]"
        }
      ],
      "payable": false,
      "stateMutability": "view",
      "type": "function"
    },
    {
      "constant": true,
      "inputs": [
        {
          "internalType": "string",
          "name": "a",
          "type": "string"
        },
        {
          "internalType": "string",
          "name": "b",
          "type": "string"
        }
      ],
      "name": "compareStrings",
      "outputs": [
        {
          "internalType": "bool",
          "name": "",
          "type": "bool"
        }
      ],
      "payable": false,
      "stateMutability": "view",
      "type": "function"
    }
  ],
  "bytecode": "0x608060405234801561001057600080fd5b5061248f806100206000396000f3fe6080604052600436106100c25760003560e01c8063b3e19d1a1161007f578063bed34bba11610059578063bed34bba146102c4578063ea788dd114610301578063ff4e36a414610340578063ff90104014610370576100c2565b8063b3e19d1a14610213578063b64b002c14610243578063b96574b714610282576100c2565b80632b7cc35a146100c757806330641862146100f757806355b059e8146101355780636205b08b1461016557806393a02a0f14610195578063a82c98d0146101d4575b600080fd5b6100e160048036036100dc9190810190611df4565b6103ad565b6040516100ee919061222e565b60405180910390f35b34801561010357600080fd5b5061011e60048036036101199190810190611cb0565b6104e9565b60405161012c92919061215f565b60405180910390f35b61014f600480360361014a9190810190611d5d565b6106af565b60405161015c919061222e565b60405180910390f35b61017f600480360361017a9190810190611d5d565b610776565b60405161018c9190612144565b60405180910390f35b3480156101a157600080fd5b506101bc60048036036101b79190810190611cb0565b610816565b6040516101cb93929190612196565b60405180910390f35b3480156101e057600080fd5b506101fb60048036036101f69190810190611c6f565b610a5f565b60405161020a939291906121e2565b60405180910390f35b61022d60048036036102289190810190611cf1565b610c67565b60405161023a919061222e565b60405180910390f35b34801561024f57600080fd5b5061026a60048036036102659190810190611c6f565b610ca9565b604051610279939291906121e2565b60405180910390f35b34801561028e57600080fd5b506102a960048036036102a49190810190611cb0565b610eb1565b6040516102bb96959493929190612249565b60405180910390f35b3480156102d057600080fd5b506102eb60048036036102e69190810190611cf1565b6112a3565b6040516102f89190612144565b60405180910390f35b34801561030d57600080fd5b5061032860048036036103239190810190611cb0565b6112fc565b60405161033793929190612196565b60405180910390f35b61035a60048036036103559190810190611d5d565b611545565b604051610367919061222e565b60405180910390f35b34801561037c57600080fd5b5061039760048036036103929190810190611cb0565b611857565b6040516103a49190612122565b60405180910390f35b60006103b7611961565b868160000181905250858160400181905250848160600181905250838160800181905250828160a00181905250806002886040516103f591906120f4565b9081526020016040518091039020600082015181600001908051906020019061041f9291906119a6565b506020820151816001015560408201518160020190805190602001906104469291906119a6565b5060608201518160030190805190602001906104639291906119a6565b5060808201518160040190805190602001906104809291906119a6565b5060a082015181600501908051906020019061049d9291906119a6565b5060c08201518160060190805190602001906104ba9291906119a6565b5060e08201518160070190805190602001906104d7929190611a26565b50905050600191505095945050505050565b60608060006002846040516104fe91906120f4565b908152602001604051809103902060060160405161051c919061210b565b9081526020016040518091039020600001600060028560405161053f91906120f4565b908152602001604051809103902060060160405161055d919061210b565b9081526020016040518091039020600101818054600181600116156101000203166002900480601f0160208091040260200160405190810160405280929190818152602001828054600181600116156101000203166002900480156106035780601f106105d857610100808354040283529160200191610603565b820191906000526020600020905b8154815290600101906020018083116105e657829003601f168201915b50505050509150808054600181600116156101000203166002900480601f01602080910402602001604051908101604052809291908181526020018280546001816001161561010002031660029004801561069f5780601f106106745761010080835404028352916020019161069f565b820191906000526020600020905b81548152906001019060200180831161068257829003601f168201915b5050505050905091509150915091565b60006106b9611a86565b838160000181905250828160200181905250848160400181905250806001866040516106e591906120f4565b9081526020016040518091039020600082015181600001908051906020019061070f9291906119a6565b50602082015181600101908051906020019061072c9291906119a6565b5060408201518160020190805190602001906107499291906119a6565b506060820151816003019080519060200190610766929190611a26565b5090505060019150509392505050565b60006040518060600160405280848152602001838152602001858152506000856040516107a391906120f4565b908152602001604051809103902060008201518160000190805190602001906107cd9291906119a6565b5060208201518160010190805190602001906107ea9291906119a6565b5060408201518160020190805190602001906108079291906119a6565b50905050600190509392505050565b606080606060018460405161082b91906120f4565b908152602001604051809103902060020160018560405161084c91906120f4565b908152602001604051809103902060000160018660405161086d91906120f4565b9081526020016040518091039020600101828054600181600116156101000203166002900480601f0160208091040260200160405190810160405280929190818152602001828054600181600116156101000203166002900480156109135780601f106108e857610100808354040283529160200191610913565b820191906000526020600020905b8154815290600101906020018083116108f657829003601f168201915b50505050509250818054600181600116156101000203166002900480601f0160208091040260200160405190810160405280929190818152602001828054600181600116156101000203166002900480156109af5780601f10610984576101008083540402835291602001916109af565b820191906000526020600020905b81548152906001019060200180831161099257829003601f168201915b50505050509150808054600181600116156101000203166002900480601f016020809104026020016040519081016040528092919081815260200182805460018160011615610100020316600290048015610a4b5780601f10610a2057610100808354040283529160200191610a4b565b820191906000526020600020905b815481529060010190602001808311610a2e57829003601f168201915b505050505090509250925092509193909250565b600181805160208101820180518482526020830160208501208183528095505050505050600091509050806000018054600181600116156101000203166002900480601f016020809104026020016040519081016040528092919081815260200182805460018160011615610100020316600290048015610b215780601f10610af657610100808354040283529160200191610b21565b820191906000526020600020905b815481529060010190602001808311610b0457829003601f168201915b505050505090806001018054600181600116156101000203166002900480601f016020809104026020016040519081016040528092919081815260200182805460018160011615610100020316600290048015610bbf5780601f10610b9457610100808354040283529160200191610bbf565b820191906000526020600020905b815481529060010190602001808311610ba257829003601f168201915b505050505090806002018054600181600116156101000203166002900480601f016020809104026020016040519081016040528092919081815260200182805460018160011615610100020316600290048015610c5d5780601f10610c3257610100808354040283529160200191610c5d565b820191906000526020600020905b815481529060010190602001808311610c4057829003601f168201915b5050505050905083565b600081600284604051610c7a91906120f4565b90815260200160405180910390206006019080519060200190610c9e929190611aae565b506001905092915050565b600081805160208101820180518482526020830160208501208183528095505050505050600091509050806000018054600181600116156101000203166002900480601f016020809104026020016040519081016040528092919081815260200182805460018160011615610100020316600290048015610d6b5780601f10610d4057610100808354040283529160200191610d6b565b820191906000526020600020905b815481529060010190602001808311610d4e57829003601f168201915b505050505090806001018054600181600116156101000203166002900480601f016020809104026020016040519081016040528092919081815260200182805460018160011615610100020316600290048015610e095780601f10610dde57610100808354040283529160200191610e09565b820191906000526020600020905b815481529060010190602001808311610dec57829003601f168201915b505050505090806002018054600181600116156101000203166002900480601f016020809104026020016040519081016040528092919081815260200182805460018160011615610100020316600290048015610ea75780601f10610e7c57610100808354040283529160200191610ea7565b820191906000526020600020905b815481529060010190602001808311610e8a57829003601f168201915b5050505050905083565b60006060806060806060600287604051610ecb91906120f4565b908152602001604051809103902060010154600288604051610eed91906120f4565b9081526020016040518091039020600201600289604051610f0e91906120f4565b908152602001604051809103902060030160028a604051610f2f91906120f4565b908152602001604051809103902060040160028b604051610f5091906120f4565b908152602001604051809103902060050160028c604051610f7191906120f4565b9081526020016040518091039020600601848054600181600116156101000203166002900480601f0160208091040260200160405190810160405280929190818152602001828054600181600116156101000203166002900480156110175780601f10610fec57610100808354040283529160200191611017565b820191906000526020600020905b815481529060010190602001808311610ffa57829003601f168201915b50505050509450838054600181600116156101000203166002900480601f0160208091040260200160405190810160405280929190818152602001828054600181600116156101000203166002900480156110b35780601f10611088576101008083540402835291602001916110b3565b820191906000526020600020905b81548152906001019060200180831161109657829003601f168201915b50505050509350828054600181600116156101000203166002900480601f01602080910402602001604051908101604052809291908181526020018280546001816001161561010002031660029004801561114f5780601f106111245761010080835404028352916020019161114f565b820191906000526020600020905b81548152906001019060200180831161113257829003601f168201915b50505050509250818054600181600116156101000203166002900480601f0160208091040260200160405190810160405280929190818152602001828054600181600116156101000203166002900480156111eb5780601f106111c0576101008083540402835291602001916111eb565b820191906000526020600020905b8154815290600101906020018083116111ce57829003601f168201915b50505050509150808054600181600116156101000203166002900480601f0160208091040260200160405190810160405280929190818152602001828054600181600116156101000203166002900480156112875780601f1061125c57610100808354040283529160200191611287565b820191906000526020600020905b81548152906001019060200180831161126a57829003601f168201915b5050505050905095509550955095509550955091939550919395565b6000816040516020016112b691906120f4565b60405160208183030381529060405280519060200120836040516020016112dd91906120f4565b6040516020818303038152906040528051906020012014905092915050565b606080606060008460405161131191906120f4565b908152602001604051809103902060020160008560405161133291906120f4565b908152602001604051809103902060000160008660405161135391906120f4565b9081526020016040518091039020600101828054600181600116156101000203166002900480601f0160208091040260200160405190810160405280929190818152602001828054600181600116156101000203166002900480156113f95780601f106113ce576101008083540402835291602001916113f9565b820191906000526020600020905b8154815290600101906020018083116113dc57829003601f168201915b50505050509250818054600181600116156101000203166002900480601f0160208091040260200160405190810160405280929190818152602001828054600181600116156101000203166002900480156114955780601f1061146a57610100808354040283529160200191611495565b820191906000526020600020905b81548152906001019060200180831161147857829003601f168201915b50505050509150808054600181600116156101000203166002900480601f0160208091040260200160405190810160405280929190818152602001828054600181600116156101000203166002900480156115315780601f1061150657610100808354040283529160200191611531565b820191906000526020600020905b81548152906001019060200180831161151457829003601f168201915b505050505090509250925092509193909250565b600061160a60028560405161155a91906120f4565b90815260200160405180910390206006018054600181600116156101000203166002900480601f0160208091040260200160405190810160405280929190818152602001828054600181600116156101000203166002900480156115ff5780601f106115d4576101008083540402835291602001916115ff565b820191906000526020600020905b8154815290600101906020018083116115e257829003601f168201915b5050505050846112a3565b1561184b576116d260018360405161162291906120f4565b90815260200160405180910390206002018054600181600116156101000203166002900480601f0160208091040260200160405190810160405280929190818152602001828054600181600116156101000203166002900480156116c75780601f1061169c576101008083540402835291602001916116c7565b820191906000526020600020905b8154815290600101906020018083116116aa57829003601f168201915b5050505050836112a3565b1561184a576002846040516116e791906120f4565b9081526020016040518091039020600701829080600181540180825580915050906001820390600052602060002001600090919290919091509080519060200190611733929190611aae565b5050600160028560405161174791906120f4565b908152602001604051809103902060010181905550600060018360405161176e91906120f4565b908152602001604051809103902060030180549050905060008114156117f15760018360405161179e91906120f4565b90815260200160405180910390206003018590806001815401808255809150509060018203906000526020600020016000909192909190915090805190602001906117ea929190611aae565b5050611840565b8460018460405161180291906120f4565b9081526020016040518091039020600301600183038154811061182157fe5b90600052602060002001908051906020019061183e929190611aae565b505b6001915050611850565b5b600090505b9392505050565b606060018260405161186991906120f4565b9081526020016040518091039020600301805480602002602001604051908101604052809291908181526020016000905b82821015611956578382906000526020600020018054600181600116156101000203166002900480601f0160208091040260200160405190810160405280929190818152602001828054600181600116156101000203166002900480156119425780601f1061191757610100808354040283529160200191611942565b820191906000526020600020905b81548152906001019060200180831161192557829003601f168201915b50505050508152602001906001019061189a565b505050509050919050565b60405180610100016040528060608152602001600081526020016060815260200160608152602001606081526020016060815260200160608152602001606081525090565b828054600181600116156101000203166002900490600052602060002090601f016020900481019282601f106119e757805160ff1916838001178555611a15565b82800160010185558215611a15579182015b82811115611a145782518255916020019190600101906119f9565b5b509050611a229190611b2e565b5090565b828054828255906000526020600020908101928215611a75579160200282015b82811115611a74578251829080519060200190611a649291906119a6565b5091602001919060010190611a46565b5b509050611a829190611b53565b5090565b6040518060800160405280606081526020016060815260200160608152602001606081525090565b828054600181600116156101000203166002900490600052602060002090601f016020900481019282601f10611aef57805160ff1916838001178555611b1d565b82800160010185558215611b1d579182015b82811115611b1c578251825591602001919060010190611b01565b5b509050611b2a9190611b2e565b5090565b611b5091905b80821115611b4c576000816000905550600101611b34565b5090565b90565b611b7c91905b80821115611b785760008181611b6f9190611b7f565b50600101611b59565b5090565b90565b50805460018160011615610100020316600290046000825580601f10611ba55750611bc4565b601f016020900490600052602060002090810190611bc39190611b2e565b5b50565b600082601f830112611bd857600080fd5b8135611beb611be6826122fa565b6122cd565b91508082526020830160208301858383011115611c0757600080fd5b611c128382846123f9565b50505092915050565b600082601f830112611c2c57600080fd5b8135611c3f611c3a82612326565b6122cd565b91508082526020830160208301858383011115611c5b57600080fd5b611c668382846123f9565b50505092915050565b600060208284031215611c8157600080fd5b600082013567ffffffffffffffff811115611c9b57600080fd5b611ca784828501611bc7565b91505092915050565b600060208284031215611cc257600080fd5b600082013567ffffffffffffffff811115611cdc57600080fd5b611ce884828501611c1b565b91505092915050565b60008060408385031215611d0457600080fd5b600083013567ffffffffffffffff811115611d1e57600080fd5b611d2a85828601611c1b565b925050602083013567ffffffffffffffff811115611d4757600080fd5b611d5385828601611c1b565b9150509250929050565b600080600060608486031215611d7257600080fd5b600084013567ffffffffffffffff811115611d8c57600080fd5b611d9886828701611c1b565b935050602084013567ffffffffffffffff811115611db557600080fd5b611dc186828701611c1b565b925050604084013567ffffffffffffffff811115611dde57600080fd5b611dea86828701611c1b565b9150509250925092565b600080600080600060a08688031215611e0c57600080fd5b600086013567ffffffffffffffff811115611e2657600080fd5b611e3288828901611c1b565b955050602086013567ffffffffffffffff811115611e4f57600080fd5b611e5b88828901611c1b565b945050604086013567ffffffffffffffff811115611e7857600080fd5b611e8488828901611c1b565b935050606086013567ffffffffffffffff811115611ea157600080fd5b611ead88828901611c1b565b925050608086013567ffffffffffffffff811115611eca57600080fd5b611ed688828901611c1b565b9150509295509295909350565b6000611eef8383611fe5565b905092915050565b6000611f0282612377565b611f0c81856123a5565b935083602082028501611f1e85612352565b8060005b85811015611f5a5784840389528151611f3b8582611ee3565b9450611f4683612398565b925060208a01995050600181019050611f22565b50829750879550505050505092915050565b611f75816123e3565b82525050565b6000611f868261238d565b611f9081856123c7565b9350611fa0818560208601612408565b611fa98161243b565b840191505092915050565b6000611fbf8261238d565b611fc981856123d8565b9350611fd9818560208601612408565b80840191505092915050565b6000611ff082612382565b611ffa81856123b6565b935061200a818560208601612408565b6120138161243b565b840191505092915050565b600061202982612382565b61203381856123c7565b9350612043818560208601612408565b61204c8161243b565b840191505092915050565b6000815460018116600081146120745760018114612099576120dd565b607f600283041661208581876123d8565b955060ff19831686528086019350506120dd565b600282046120a781876123d8565b95506120b285612362565b60005b828110156120d4578154818901526001820191506020810190506120b5565b82880195505050505b505092915050565b6120ee816123ef565b82525050565b60006121008284611fb4565b915081905092915050565b60006121178284612057565b915081905092915050565b6000602082019050818103600083015261213c8184611ef7565b905092915050565b60006020820190506121596000830184611f6c565b92915050565b600060408201905081810360008301526121798185611f7b565b9050818103602083015261218d8184611f7b565b90509392505050565b600060608201905081810360008301526121b08186611f7b565b905081810360208301526121c48185611f7b565b905081810360408301526121d88184611f7b565b9050949350505050565b600060608201905081810360008301526121fc818661201e565b90508181036020830152612210818561201e565b90508181036040830152612224818461201e565b9050949350505050565b600060208201905061224360008301846120e5565b92915050565b600060c08201905061225e60008301896120e5565b81810360208301526122708188611f7b565b905081810360408301526122848187611f7b565b905081810360608301526122988186611f7b565b905081810360808301526122ac8185611f7b565b905081810360a08301526122c08184611f7b565b9050979650505050505050565b6000604051905081810181811067ffffffffffffffff821117156122f057600080fd5b8060405250919050565b600067ffffffffffffffff82111561231157600080fd5b601f19601f8301169050602081019050919050565b600067ffffffffffffffff82111561233d57600080fd5b601f19601f8301169050602081019050919050565b6000819050602082019050919050565b60008190508160005260206000209050919050565b600081519050919050565b600081519050919050565b600081519050919050565b6000602082019050919050565b600082825260208201905092915050565b600082825260208201905092915050565b600082825260208201905092915050565b600081905092915050565b60008115159050919050565b6000819050919050565b82818337600083830152505050565b60005b8381101561242657808201518184015260208101905061240b565b83811115612435576000848401525b50505050565b6000601f19601f830116905091905056fea365627a7a72315820c54b3a670e7284d33e3e26489e633dae4d95407dfa80f5eda1044ee49855b3836c6578706572696d656e74616cf564736f6c63430005100040",
  "source": "// SPDX-License-Identifier: GPL-3.0\r\npragma solidity ^0.5.16;\r\npragma experimental ABIEncoderV2;\r\n\r\n//test data:\r\n// createCustomer =>  \"1e8ffd7005b81ace8bbbf148f0af1fa7\",\"Abhishek\",\"9284903101\"\r\n//    \"64dc070868dfd4098166a1848dc3b2f8\" ,\"987268389682\", \"raj\",\r\n// getCustomeDetails => 426614174000\r\n// craeteReatiler => \"fdea9301c28d13edc5de9cb7943cccbb\", \"tets retailer\", \"20.593683 78.962883\"\r\n//createCode => \"92830\",\"Adidas\",\"This Is nike Shoes\",\"292fdc84156e204259df3fe88014667a\",\"20.593683 78.962883\"\r\n\r\n// Product custoructoer\r\n//  struct Product{\r\n//     address creator;\r\n//     string productName;\r\n//     uint256 productId;\r\n//     string date;\r\n//     string totalState;\r\n//     mapping (uint256 => State) positions;\r\n// }\r\n\r\n// struct State{\r\n//     string description;\r\n//     address person;\r\n// }\r\n\r\ncontract Authentifi {\r\n    struct Customer {\r\n        string name;\r\n        string phone;\r\n        string hashid;\r\n        string[] codes;\r\n    }\r\n    struct Retailer {\r\n        string name;\r\n        string location;\r\n        string hashid;\r\n    }\r\n\r\n    struct Productcode {\r\n        string code;\r\n        uint256 status;\r\n        string brand;\r\n        string description;\r\n        string manufactuerhash;\r\n        string manufactuerLocation;\r\n        string retailer;\r\n        string[] owner;\r\n    }\r\n\r\n    //\r\n    mapping(string => Retailer) public retailer;\r\n    mapping(string => Customer) public customers;\r\n    mapping(string => Productcode) products;\r\n\r\n    function createCustomer(\r\n        string memory _id,\r\n        string memory _name,\r\n        string memory _phone\r\n    ) public payable returns (uint256) {\r\n        Customer memory newCustomer;\r\n        newCustomer.name = _name;\r\n        newCustomer.phone = _phone;\r\n        newCustomer.hashid = _id;\r\n        customers[_id] = newCustomer;\r\n        // customers[_id] = Customer(_name, _phone, _id);\r\n        return 1;\r\n    }\r\n\r\n    function getCustomeDetails(string memory _id)\r\n        public\r\n        view\r\n        returns (\r\n            string memory,\r\n            string memory,\r\n            string memory\r\n        )\r\n    {\r\n        return (\r\n            customers[_id].hashid,\r\n            customers[_id].name,\r\n            customers[_id].phone\r\n        );\r\n    }\r\n\r\n    function createReatiler(\r\n        string memory _id,\r\n        string memory _name,\r\n        string memory _location\r\n    ) public payable returns (bool) {\r\n        retailer[_id] = Retailer(_name, _location, _id);\r\n        return true;\r\n    }\r\n\r\n    function getRetailerDetails(string memory _id)\r\n        public\r\n        view\r\n        returns (\r\n            string memory,\r\n            string memory,\r\n            string memory\r\n        )\r\n    {\r\n        return (\r\n            retailer[_id].hashid,\r\n            retailer[_id].name,\r\n            retailer[_id].location\r\n        );\r\n    }\r\n\r\n    function createCode(\r\n        string memory _code,\r\n        string memory _brand,\r\n        string memory _description,\r\n        string memory _manufacturehash,\r\n        string memory _manufactuerLocation\r\n    ) public payable returns (uint256) {\r\n        Productcode memory newProduct;\r\n        newProduct.code = _code;\r\n        newProduct.brand = _brand;\r\n        newProduct.description = _description;\r\n        newProduct.manufactuerhash = _manufacturehash;\r\n        newProduct.manufactuerLocation = _manufactuerLocation;\r\n        products[_code] = newProduct;\r\n\r\n        // products[_code] = Productcode(_code, _status, _brand, _description, _manufacturehash, _manufactuerLocation, _retailer, []);\r\n        return 1;\r\n    }\r\n\r\n    function getProductDeailes(string memory _code)\r\n        public\r\n        view\r\n        returns (\r\n            uint256,\r\n            string memory,\r\n            string memory,\r\n            string memory,\r\n            string memory,\r\n            string memory\r\n        )\r\n    {\r\n        return (\r\n            products[_code].status,\r\n            products[_code].brand,\r\n            products[_code].description,\r\n            products[_code].manufactuerhash,\r\n            products[_code].manufactuerLocation,\r\n            products[_code].retailer\r\n            // products[_code].owner\r\n        );\r\n    }\r\n\r\n    function getOwnedProductDetails(string memory _code)\r\n        public\r\n        view\r\n        returns (string memory, string memory)\r\n    {\r\n        return (\r\n            retailer[products[_code].retailer].name,\r\n            retailer[products[_code].retailer].location\r\n        );\r\n    }\r\n\r\n    function addRetailerToCode(string memory _code, string memory _retailerHash)\r\n        public\r\n        payable\r\n        returns (uint256)\r\n    {\r\n        products[_code].retailer = _retailerHash;\r\n        return 1;\r\n    }\r\n\r\n    function setInitialOwner(\r\n        string memory _code,\r\n        string memory _retailer,\r\n        string memory _customer\r\n    ) public payable returns (uint256) {\r\n        if (compareStrings(products[_code].retailer, _retailer)) {\r\n            if (compareStrings(customers[_customer].hashid, _customer)) {\r\n                products[_code].owner.push(_customer);\r\n                products[_code].status = 1;\r\n                uint256 length = customers[_customer].codes.length;\r\n                if (length == 0) {\r\n                    customers[_customer].codes.push(_code);\r\n                } else {\r\n                    customers[_customer].codes[length - 1] = _code;\r\n                }\r\n                return 1;\r\n            }\r\n        }\r\n        return 0;\r\n    }\r\n\r\n    // function changeOwner(string memory _code, string memory _newCustomer, string memory _oldCustomer) public payable returns(uint){\r\n    //     uint i;\r\n    //     bool flag = false;\r\n    //      //Creating objects for code,oldCustomer,newCustomer\r\n    //      Productcode memory product = products[_code];\r\n    //      uint len_product_owner = product.owner.length;\r\n    // }\r\n    function getCodes(string memory _customer)\r\n        public\r\n        view\r\n        returns (string[] memory)\r\n    {\r\n        return customers[_customer].codes;\r\n    }\r\n\r\n    function compareStrings(string memory a, string memory b)\r\n        public\r\n        view\r\n        returns (bool)\r\n    {\r\n        return (keccak256(abi.encodePacked((a))) ==\r\n            keccak256(abi.encodePacked((b))));\r\n    }\r\n\r\n    // Function to delete an element from an array\r\n    function remove(uint256 index, string[] storage array)\r\n        internal\r\n        returns (bool)\r\n    {\r\n        if (index >= array.length) return false;\r\n\r\n        for (uint256 i = index; i < array.length - 1; i++) {\r\n            array[i] = array[i + 1];\r\n        }\r\n        delete array[array.length - 1];\r\n        return true;\r\n    }\r\n}\r\n",
  "sourcePath": "G:/Blockchain Developement/authenitfy/contracts/Authentifi.sol",
  "compiler": {
    "name": "solc",
    "version": "0.5.16+commit.9c3226ce.Emscripten.clang"
  },
  "schemaVersion": "3.4.1",
  "updatedAt": "2021-09-29T08:59:16.584Z",
  "networkType": "ethereum",
  "devdoc": {
    "methods": {}
  },
  "userdoc": {
    "methods": {}
  }
}